{
  "_format": "hh-sol-artifact-1",
  "contractName": "FarmerProductPage",
  "sourceName": "contracts/FarmerProductPage.sol",
  "abi": [
    {
      "inputs": [
        {
          "internalType": "address",
          "name": "_farmerRegistryAddress",
          "type": "address"
        }
      ],
      "stateMutability": "nonpayable",
      "type": "constructor"
    },
    {
      "inputs": [
        {
          "internalType": "string",
          "name": "_location",
          "type": "string"
        },
        {
          "internalType": "uint256",
          "name": "_quantity",
          "type": "uint256"
        },
        {
          "internalType": "uint256",
          "name": "_price",
          "type": "uint256"
        },
        {
          "internalType": "uint256",
          "name": "_date",
          "type": "uint256"
        }
      ],
      "name": "addProduct",
      "outputs": [],
      "stateMutability": "nonpayable",
      "type": "function"
    },
    {
      "inputs": [
        {
          "internalType": "uint256",
          "name": "",
          "type": "uint256"
        }
      ],
      "name": "cocoaProducts",
      "outputs": [
        {
          "internalType": "address",
          "name": "farmer",
          "type": "address"
        },
        {
          "internalType": "string",
          "name": "location",
          "type": "string"
        },
        {
          "internalType": "uint256",
          "name": "quantity",
          "type": "uint256"
        },
        {
          "internalType": "uint256",
          "name": "price",
          "type": "uint256"
        },
        {
          "internalType": "uint256",
          "name": "date",
          "type": "uint256"
        }
      ],
      "stateMutability": "view",
      "type": "function"
    },
    {
      "inputs": [],
      "name": "farmerRegistry",
      "outputs": [
        {
          "internalType": "contract FarmerRegistry",
          "name": "",
          "type": "address"
        }
      ],
      "stateMutability": "view",
      "type": "function"
    },
    {
      "inputs": [],
      "name": "getProducts",
      "outputs": [
        {
          "components": [
            {
              "internalType": "address",
              "name": "farmer",
              "type": "address"
            },
            {
              "internalType": "string",
              "name": "location",
              "type": "string"
            },
            {
              "internalType": "uint256",
              "name": "quantity",
              "type": "uint256"
            },
            {
              "internalType": "uint256",
              "name": "price",
              "type": "uint256"
            },
            {
              "internalType": "uint256",
              "name": "date",
              "type": "uint256"
            }
          ],
          "internalType": "struct FarmerProductPage.CocoaProduct[]",
          "name": "",
          "type": "tuple[]"
        }
      ],
      "stateMutability": "view",
      "type": "function"
    }
  ],
  "bytecode": "0x60806040523480156200001157600080fd5b50604051620011d4380380620011d48339818101604052810190620000379190620000e9565b80600160006101000a81548173ffffffffffffffffffffffffffffffffffffffff021916908373ffffffffffffffffffffffffffffffffffffffff160217905550506200011b565b600080fd5b600073ffffffffffffffffffffffffffffffffffffffff82169050919050565b6000620000b18262000084565b9050919050565b620000c381620000a4565b8114620000cf57600080fd5b50565b600081519050620000e381620000b8565b92915050565b6000602082840312156200010257620001016200007f565b5b60006200011284828501620000d2565b91505092915050565b6110a9806200012b6000396000f3fe608060405234801561001057600080fd5b506004361061004c5760003560e01c8063094455c4146100515780630da809801461006d578063c29b2f201461008b578063ffd03090146100a9575b600080fd5b61006b600480360381019061006691906107f8565b6100dd565b005b6100756102a9565b60405161008291906108fa565b60405180910390f35b6100936102cf565b6040516100a09190610afc565b60405180910390f35b6100c360048036038101906100be9190610b1e565b610535565b6040516100d4959493929190610bb3565b60405180910390f35b600160009054906101000a900473ffffffffffffffffffffffffffffffffffffffff1673ffffffffffffffffffffffffffffffffffffffff16636762d43c336040518263ffffffff1660e01b81526004016101389190610c0d565b602060405180830381865afa158015610155573d6000803e3d6000fd5b505050506040513d601f19601f820116820180604052508101906101799190610c60565b6101b8576040517f08c379a00000000000000000000000000000000000000000000000000000000081526004016101af90610cd9565b60405180910390fd5b60006040518060a001604052803373ffffffffffffffffffffffffffffffffffffffff168152602001868152602001858152602001848152602001838152509050600081908060018154018082558091505060019003906000526020600020906005020160009091909190915060008201518160000160006101000a81548173ffffffffffffffffffffffffffffffffffffffff021916908373ffffffffffffffffffffffffffffffffffffffff16021790555060208201518160010190816102819190610efb565b5060408201518160020155606082015181600301556080820151816004015550505050505050565b600160009054906101000a900473ffffffffffffffffffffffffffffffffffffffff1681565b60606000808054905067ffffffffffffffff8111156102f1576102f0610697565b5b60405190808252806020026020018201604052801561032a57816020015b610317610623565b81526020019060019003908161030f5790505b5090506000805b600080549050811015610529573373ffffffffffffffffffffffffffffffffffffffff166000828154811061036957610368610fcd565b5b906000526020600020906005020160000160009054906101000a900473ffffffffffffffffffffffffffffffffffffffff1673ffffffffffffffffffffffffffffffffffffffff160361051657600081815481106103ca576103c9610fcd565b5b90600052602060002090600502016040518060a00160405290816000820160009054906101000a900473ffffffffffffffffffffffffffffffffffffffff1673ffffffffffffffffffffffffffffffffffffffff1673ffffffffffffffffffffffffffffffffffffffff16815260200160018201805461044990610d28565b80601f016020809104026020016040519081016040528092919081815260200182805461047590610d28565b80156104c25780601f10610497576101008083540402835291602001916104c2565b820191906000526020600020905b8154815290600101906020018083116104a557829003601f168201915b5050505050815260200160028201548152602001600382015481526020016004820154815250508383815181106104fc576104fb610fcd565b5b602002602001018190525081806105129061102b565b9250505b80806105219061102b565b915050610331565b50808252819250505090565b6000818154811061054557600080fd5b90600052602060002090600502016000915090508060000160009054906101000a900473ffffffffffffffffffffffffffffffffffffffff169080600101805461058e90610d28565b80601f01602080910402602001604051908101604052809291908181526020018280546105ba90610d28565b80156106075780601f106105dc57610100808354040283529160200191610607565b820191906000526020600020905b8154815290600101906020018083116105ea57829003601f168201915b5050505050908060020154908060030154908060040154905085565b6040518060a00160405280600073ffffffffffffffffffffffffffffffffffffffff168152602001606081526020016000815260200160008152602001600081525090565b6000604051905090565b600080fd5b600080fd5b600080fd5b600080fd5b6000601f19601f8301169050919050565b7f4e487b7100000000000000000000000000000000000000000000000000000000600052604160045260246000fd5b6106cf82610686565b810181811067ffffffffffffffff821117156106ee576106ed610697565b5b80604052505050565b6000610701610668565b905061070d82826106c6565b919050565b600067ffffffffffffffff82111561072d5761072c610697565b5b61073682610686565b9050602081019050919050565b82818337600083830152505050565b600061076561076084610712565b6106f7565b90508281526020810184848401111561078157610780610681565b5b61078c848285610743565b509392505050565b600082601f8301126107a9576107a861067c565b5b81356107b9848260208601610752565b91505092915050565b6000819050919050565b6107d5816107c2565b81146107e057600080fd5b50565b6000813590506107f2816107cc565b92915050565b6000806000806080858703121561081257610811610672565b5b600085013567ffffffffffffffff8111156108305761082f610677565b5b61083c87828801610794565b945050602061084d878288016107e3565b935050604061085e878288016107e3565b925050606061086f878288016107e3565b91505092959194509250565b600073ffffffffffffffffffffffffffffffffffffffff82169050919050565b6000819050919050565b60006108c06108bb6108b68461087b565b61089b565b61087b565b9050919050565b60006108d2826108a5565b9050919050565b60006108e4826108c7565b9050919050565b6108f4816108d9565b82525050565b600060208201905061090f60008301846108eb565b92915050565b600081519050919050565b600082825260208201905092915050565b6000819050602082019050919050565b600061094c8261087b565b9050919050565b61095c81610941565b82525050565b600081519050919050565b600082825260208201905092915050565b60005b8381101561099c578082015181840152602081019050610981565b60008484015250505050565b60006109b382610962565b6109bd818561096d565b93506109cd81856020860161097e565b6109d681610686565b840191505092915050565b6109ea816107c2565b82525050565b600060a083016000830151610a086000860182610953565b5060208301518482036020860152610a2082826109a8565b9150506040830151610a3560408601826109e1565b506060830151610a4860608601826109e1565b506080830151610a5b60808601826109e1565b508091505092915050565b6000610a7283836109f0565b905092915050565b6000602082019050919050565b6000610a9282610915565b610a9c8185610920565b935083602082028501610aae85610931565b8060005b85811015610aea5784840389528151610acb8582610a66565b9450610ad683610a7a565b925060208a01995050600181019050610ab2565b50829750879550505050505092915050565b60006020820190508181036000830152610b168184610a87565b905092915050565b600060208284031215610b3457610b33610672565b5b6000610b42848285016107e3565b91505092915050565b610b5481610941565b82525050565b600082825260208201905092915050565b6000610b7682610962565b610b808185610b5a565b9350610b9081856020860161097e565b610b9981610686565b840191505092915050565b610bad816107c2565b82525050565b600060a082019050610bc86000830188610b4b565b8181036020830152610bda8187610b6b565b9050610be96040830186610ba4565b610bf66060830185610ba4565b610c036080830184610ba4565b9695505050505050565b6000602082019050610c226000830184610b4b565b92915050565b60008115159050919050565b610c3d81610c28565b8114610c4857600080fd5b50565b600081519050610c5a81610c34565b92915050565b600060208284031215610c7657610c75610672565b5b6000610c8484828501610c4b565b91505092915050565b7f4661726d6572206973206e6f7420726567697374657265640000000000000000600082015250565b6000610cc3601883610b5a565b9150610cce82610c8d565b602082019050919050565b60006020820190508181036000830152610cf281610cb6565b9050919050565b7f4e487b7100000000000000000000000000000000000000000000000000000000600052602260045260246000fd5b60006002820490506001821680610d4057607f821691505b602082108103610d5357610d52610cf9565b5b50919050565b60008190508160005260206000209050919050565b60006020601f8301049050919050565b600082821b905092915050565b600060088302610dbb7fffffffffffffffffffffffffffffffffffffffffffffffffffffffffffffffff82610d7e565b610dc58683610d7e565b95508019841693508086168417925050509392505050565b6000610df8610df3610dee846107c2565b61089b565b6107c2565b9050919050565b6000819050919050565b610e1283610ddd565b610e26610e1e82610dff565b848454610d8b565b825550505050565b600090565b610e3b610e2e565b610e46818484610e09565b505050565b5b81811015610e6a57610e5f600082610e33565b600181019050610e4c565b5050565b601f821115610eaf57610e8081610d59565b610e8984610d6e565b81016020851015610e98578190505b610eac610ea485610d6e565b830182610e4b565b50505b505050565b600082821c905092915050565b6000610ed260001984600802610eb4565b1980831691505092915050565b6000610eeb8383610ec1565b9150826002028217905092915050565b610f0482610962565b67ffffffffffffffff811115610f1d57610f1c610697565b5b610f278254610d28565b610f32828285610e6e565b600060209050601f831160018114610f655760008415610f53578287015190505b610f5d8582610edf565b865550610fc5565b601f198416610f7386610d59565b60005b82811015610f9b57848901518255600182019150602085019450602081019050610f76565b86831015610fb85784890151610fb4601f891682610ec1565b8355505b6001600288020188555050505b505050505050565b7f4e487b7100000000000000000000000000000000000000000000000000000000600052603260045260246000fd5b7f4e487b7100000000000000000000000000000000000000000000000000000000600052601160045260246000fd5b6000611036826107c2565b91507fffffffffffffffffffffffffffffffffffffffffffffffffffffffffffffffff820361106857611067610ffc565b5b60018201905091905056fea26469706673582212208b32c508646465a0aa4e18df664a45a29d59bf36b27353c3532c94e196ebe7e264736f6c63430008120033",
  "linkReferences": {},
  "deployedLinkReferences": {}
}