{
  "_format": "hh-sol-artifact-1",
  "contractName": "FarmerRegistry",
  "sourceName": "contracts/Farmer.sol",
  "abi": [
    {
      "anonymous": false,
      "inputs": [
        {
          "indexed": false,
          "internalType": "string",
          "name": "_name",
          "type": "string"
        },
        {
          "indexed": false,
          "internalType": "string",
          "name": "_location",
          "type": "string"
        },
        {
          "indexed": false,
          "internalType": "uint256",
          "name": "_yield",
          "type": "uint256"
        },
        {
          "indexed": false,
          "internalType": "uint256",
          "name": "_dateCreated",
          "type": "uint256"
        }
      ],
      "name": "FarmerCreated",
      "type": "event"
    },
    {
      "inputs": [],
      "name": "farmerCount",
      "outputs": [
        {
          "internalType": "uint256",
          "name": "",
          "type": "uint256"
        }
      ],
      "stateMutability": "view",
      "type": "function"
    },
    {
      "inputs": [
        {
          "internalType": "address",
          "name": "",
          "type": "address"
        },
        {
          "internalType": "uint256",
          "name": "",
          "type": "uint256"
        }
      ],
      "name": "farmers",
      "outputs": [
        {
          "internalType": "string",
          "name": "name",
          "type": "string"
        },
        {
          "internalType": "string",
          "name": "location",
          "type": "string"
        },
        {
          "internalType": "uint256",
          "name": "yield",
          "type": "uint256"
        },
        {
          "internalType": "uint256",
          "name": "dateCreated",
          "type": "uint256"
        }
      ],
      "stateMutability": "view",
      "type": "function"
    },
    {
      "inputs": [
        {
          "internalType": "string",
          "name": "_name",
          "type": "string"
        },
        {
          "internalType": "string",
          "name": "_location",
          "type": "string"
        },
        {
          "internalType": "uint256",
          "name": "_yield",
          "type": "uint256"
        },
        {
          "internalType": "uint256",
          "name": "_dateCreated",
          "type": "uint256"
        }
      ],
      "name": "registerFarmer",
      "outputs": [],
      "stateMutability": "nonpayable",
      "type": "function"
    },
    {
      "inputs": [
        {
          "internalType": "uint256",
          "name": "",
          "type": "uint256"
        }
      ],
      "name": "typeFarmers",
      "outputs": [
        {
          "internalType": "string",
          "name": "name",
          "type": "string"
        },
        {
          "internalType": "string",
          "name": "location",
          "type": "string"
        },
        {
          "internalType": "uint256",
          "name": "yield",
          "type": "uint256"
        },
        {
          "internalType": "uint256",
          "name": "dateCreated",
          "type": "uint256"
        }
      ],
      "stateMutability": "view",
      "type": "function"
    }
  ],
  "bytecode": "0x608060405234801561001057600080fd5b50610cde806100206000396000f3fe608060405234801561001057600080fd5b506004361061004c5760003560e01c806350b01d9a14610051578063524bc0f01461006d578063bd45b397146100a0578063e5b48da9146100be575b600080fd5b61006b600480360381019061006691906106ed565b6100f1565b005b6100876004803603810190610082919061078c565b6102aa565b6040516100979493929190610847565b60405180910390f35b6100a86103fa565b6040516100b5919061089a565b60405180910390f35b6100d860048036038101906100d39190610913565b610400565b6040516100e89493929190610847565b60405180910390f35b600060405180608001604052808681526020018581526020018481526020018381525090506000803373ffffffffffffffffffffffffffffffffffffffff1673ffffffffffffffffffffffffffffffffffffffff16815260200190815260200160002081908060018154018082558091505060019003906000526020600020906004020160009091909190915060008201518160000190816101939190610b5f565b5060208201518160010190816101a99190610b5f565b5060408201518160020155606082015181600301555050600160008154809291906101d390610c60565b91905055506002604051806080016040528087815260200186815260200185815260200184815250908060018154018082558091505060019003906000526020600020906004020160009091909190915060008201518160000190816102399190610b5f565b50602082015181600101908161024f9190610b5f565b50604082015181600201556060820151816003015550507febfce101e324ae532db9dc24806a586081b9a226984caa7e91596cd53bffa0c68585858560405161029b9493929190610847565b60405180910390a15050505050565b600281815481106102ba57600080fd5b90600052602060002090600402016000915090508060000180546102dd90610982565b80601f016020809104026020016040519081016040528092919081815260200182805461030990610982565b80156103565780601f1061032b57610100808354040283529160200191610356565b820191906000526020600020905b81548152906001019060200180831161033957829003601f168201915b50505050509080600101805461036b90610982565b80601f016020809104026020016040519081016040528092919081815260200182805461039790610982565b80156103e45780601f106103b9576101008083540402835291602001916103e4565b820191906000526020600020905b8154815290600101906020018083116103c757829003601f168201915b5050505050908060020154908060030154905084565b60015481565b6000602052816000526040600020818154811061041c57600080fd5b90600052602060002090600402016000915091505080600001805461044090610982565b80601f016020809104026020016040519081016040528092919081815260200182805461046c90610982565b80156104b95780601f1061048e576101008083540402835291602001916104b9565b820191906000526020600020905b81548152906001019060200180831161049c57829003601f168201915b5050505050908060010180546104ce90610982565b80601f01602080910402602001604051908101604052809291908181526020018280546104fa90610982565b80156105475780601f1061051c57610100808354040283529160200191610547565b820191906000526020600020905b81548152906001019060200180831161052a57829003601f168201915b5050505050908060020154908060030154905084565b6000604051905090565b600080fd5b600080fd5b600080fd5b600080fd5b6000601f19601f8301169050919050565b7f4e487b7100000000000000000000000000000000000000000000000000000000600052604160045260246000fd5b6105c48261057b565b810181811067ffffffffffffffff821117156105e3576105e261058c565b5b80604052505050565b60006105f661055d565b905061060282826105bb565b919050565b600067ffffffffffffffff8211156106225761062161058c565b5b61062b8261057b565b9050602081019050919050565b82818337600083830152505050565b600061065a61065584610607565b6105ec565b90508281526020810184848401111561067657610675610576565b5b610681848285610638565b509392505050565b600082601f83011261069e5761069d610571565b5b81356106ae848260208601610647565b91505092915050565b6000819050919050565b6106ca816106b7565b81146106d557600080fd5b50565b6000813590506106e7816106c1565b92915050565b6000806000806080858703121561070757610706610567565b5b600085013567ffffffffffffffff8111156107255761072461056c565b5b61073187828801610689565b945050602085013567ffffffffffffffff8111156107525761075161056c565b5b61075e87828801610689565b935050604061076f878288016106d8565b9250506060610780878288016106d8565b91505092959194509250565b6000602082840312156107a2576107a1610567565b5b60006107b0848285016106d8565b91505092915050565b600081519050919050565b600082825260208201905092915050565b60005b838110156107f35780820151818401526020810190506107d8565b60008484015250505050565b600061080a826107b9565b61081481856107c4565b93506108248185602086016107d5565b61082d8161057b565b840191505092915050565b610841816106b7565b82525050565b6000608082019050818103600083015261086181876107ff565b9050818103602083015261087581866107ff565b90506108846040830185610838565b6108916060830184610838565b95945050505050565b60006020820190506108af6000830184610838565b92915050565b600073ffffffffffffffffffffffffffffffffffffffff82169050919050565b60006108e0826108b5565b9050919050565b6108f0816108d5565b81146108fb57600080fd5b50565b60008135905061090d816108e7565b92915050565b6000806040838503121561092a57610929610567565b5b6000610938858286016108fe565b9250506020610949858286016106d8565b9150509250929050565b7f4e487b7100000000000000000000000000000000000000000000000000000000600052602260045260246000fd5b6000600282049050600182168061099a57607f821691505b6020821081036109ad576109ac610953565b5b50919050565b60008190508160005260206000209050919050565b60006020601f8301049050919050565b600082821b905092915050565b600060088302610a157fffffffffffffffffffffffffffffffffffffffffffffffffffffffffffffffff826109d8565b610a1f86836109d8565b95508019841693508086168417925050509392505050565b6000819050919050565b6000610a5c610a57610a52846106b7565b610a37565b6106b7565b9050919050565b6000819050919050565b610a7683610a41565b610a8a610a8282610a63565b8484546109e5565b825550505050565b600090565b610a9f610a92565b610aaa818484610a6d565b505050565b5b81811015610ace57610ac3600082610a97565b600181019050610ab0565b5050565b601f821115610b1357610ae4816109b3565b610aed846109c8565b81016020851015610afc578190505b610b10610b08856109c8565b830182610aaf565b50505b505050565b600082821c905092915050565b6000610b3660001984600802610b18565b1980831691505092915050565b6000610b4f8383610b25565b9150826002028217905092915050565b610b68826107b9565b67ffffffffffffffff811115610b8157610b8061058c565b5b610b8b8254610982565b610b96828285610ad2565b600060209050601f831160018114610bc95760008415610bb7578287015190505b610bc18582610b43565b865550610c29565b601f198416610bd7866109b3565b60005b82811015610bff57848901518255600182019150602085019450602081019050610bda565b86831015610c1c5784890151610c18601f891682610b25565b8355505b6001600288020188555050505b505050505050565b7f4e487b7100000000000000000000000000000000000000000000000000000000600052601160045260246000fd5b6000610c6b826106b7565b91507fffffffffffffffffffffffffffffffffffffffffffffffffffffffffffffffff8203610c9d57610c9c610c31565b5b60018201905091905056fea2646970667358221220847e28c0dfc1a20ad338a29e4d96702d0ec5d2d46b54ecfabb1e2e7002028cbc64736f6c63430008120033",
  "linkReferences": {},
  "deployedLinkReferences": {}
}