{
  "_format": "hh-sol-artifact-1",
  "contractName": "FarmerRegistry",
  "sourceName": "contracts/Farmer.sol",
  "abi": [
    {
      "anonymous": false,
      "inputs": [
        {
          "indexed": true,
          "internalType": "address",
          "name": "_owner",
          "type": "address"
        },
        {
          "indexed": false,
          "internalType": "string",
          "name": "_name",
          "type": "string"
        },
        {
          "indexed": false,
          "internalType": "string",
          "name": "_location",
          "type": "string"
        },
        {
          "indexed": false,
          "internalType": "uint256",
          "name": "_yield",
          "type": "uint256"
        },
        {
          "indexed": false,
          "internalType": "uint256",
          "name": "_dateCreated",
          "type": "uint256"
        },
        {
          "indexed": false,
          "internalType": "uint256",
          "name": "_rating",
          "type": "uint256"
        }
      ],
      "name": "FarmerCreated",
      "type": "event"
    },
    {
      "inputs": [],
      "name": "farmerCount",
      "outputs": [
        {
          "internalType": "uint256",
          "name": "",
          "type": "uint256"
        }
      ],
      "stateMutability": "view",
      "type": "function"
    },
    {
      "inputs": [
        {
          "internalType": "address",
          "name": "",
          "type": "address"
        },
        {
          "internalType": "uint256",
          "name": "",
          "type": "uint256"
        }
      ],
      "name": "farmers",
      "outputs": [
        {
          "internalType": "address",
          "name": "owner",
          "type": "address"
        },
        {
          "internalType": "string",
          "name": "name",
          "type": "string"
        },
        {
          "internalType": "string",
          "name": "location",
          "type": "string"
        },
        {
          "internalType": "uint256",
          "name": "yield",
          "type": "uint256"
        },
        {
          "internalType": "uint256",
          "name": "dateCreated",
          "type": "uint256"
        },
        {
          "internalType": "uint256",
          "name": "rating",
          "type": "uint256"
        }
      ],
      "stateMutability": "view",
      "type": "function"
    },
    {
      "inputs": [
        {
          "internalType": "string",
          "name": "_name",
          "type": "string"
        },
        {
          "internalType": "string",
          "name": "_location",
          "type": "string"
        },
        {
          "internalType": "uint256",
          "name": "_yield",
          "type": "uint256"
        },
        {
          "internalType": "uint256",
          "name": "_dateCreated",
          "type": "uint256"
        }
      ],
      "name": "registerFarmer",
      "outputs": [],
      "stateMutability": "payable",
      "type": "function"
    },
    {
      "inputs": [
        {
          "internalType": "uint256",
          "name": "",
          "type": "uint256"
        }
      ],
      "name": "typeFarmers",
      "outputs": [
        {
          "internalType": "address",
          "name": "owner",
          "type": "address"
        },
        {
          "internalType": "string",
          "name": "name",
          "type": "string"
        },
        {
          "internalType": "string",
          "name": "location",
          "type": "string"
        },
        {
          "internalType": "uint256",
          "name": "yield",
          "type": "uint256"
        },
        {
          "internalType": "uint256",
          "name": "dateCreated",
          "type": "uint256"
        },
        {
          "internalType": "uint256",
          "name": "rating",
          "type": "uint256"
        }
      ],
      "stateMutability": "view",
      "type": "function"
    }
  ],
  "bytecode": "0x608060405234801561001057600080fd5b50610ff1806100206000396000f3fe60806040526004361061003f5760003560e01c806350b01d9a14610044578063524bc0f014610060578063bd45b397146100a2578063e5b48da9146100cd575b600080fd5b61005e600480360381019061005991906108a7565b61010f565b005b34801561006c57600080fd5b5061008760048036038101906100829190610946565b61040c565b60405161009996959493929190610a42565b60405180910390f35b3480156100ae57600080fd5b506100b7610588565b6040516100c49190610ab1565b60405180910390f35b3480156100d957600080fd5b506100f460048036038101906100ef9190610af8565b61058e565b60405161010696959493929190610a42565b60405180910390f35b813414610151576040517f08c379a000000000000000000000000000000000000000000000000000000000815260040161014890610baa565b60405180910390fd5b60006040518060c001604052803373ffffffffffffffffffffffffffffffffffffffff168152602001868152602001858152602001848152602001838152602001600081525090506000803373ffffffffffffffffffffffffffffffffffffffff1673ffffffffffffffffffffffffffffffffffffffff16815260200190815260200160002081908060018154018082558091505060019003906000526020600020906006020160009091909190915060008201518160000160006101000a81548173ffffffffffffffffffffffffffffffffffffffff021916908373ffffffffffffffffffffffffffffffffffffffff160217905550602082015181600101908161025d9190610dd6565b5060408201518160020190816102739190610dd6565b50606082015181600301556080820151816004015560a082015181600501555050600160008154809291906102a790610ed7565b919050555060026040518060c001604052803373ffffffffffffffffffffffffffffffffffffffff1681526020018781526020018681526020018581526020018481526020016000815250908060018154018082558091505060019003906000526020600020906006020160009091909190915060008201518160000160006101000a81548173ffffffffffffffffffffffffffffffffffffffff021916908373ffffffffffffffffffffffffffffffffffffffff16021790555060208201518160010190816103779190610dd6565b50604082015181600201908161038d9190610dd6565b50606082015181600301556080820151816004015560a0820151816005015550503373ffffffffffffffffffffffffffffffffffffffff167f8713771ef991771aa32ea29f024fb129a99b222cde5dd8baba8a91ae8d8163d88686868660006040516103fd959493929190610f5a565b60405180910390a25050505050565b6002818154811061041c57600080fd5b90600052602060002090600602016000915090508060000160009054906101000a900473ffffffffffffffffffffffffffffffffffffffff169080600101805461046590610bf9565b80601f016020809104026020016040519081016040528092919081815260200182805461049190610bf9565b80156104de5780601f106104b3576101008083540402835291602001916104de565b820191906000526020600020905b8154815290600101906020018083116104c157829003601f168201915b5050505050908060020180546104f390610bf9565b80601f016020809104026020016040519081016040528092919081815260200182805461051f90610bf9565b801561056c5780601f106105415761010080835404028352916020019161056c565b820191906000526020600020905b81548152906001019060200180831161054f57829003601f168201915b5050505050908060030154908060040154908060050154905086565b60015481565b600060205281600052604060002081815481106105aa57600080fd5b9060005260206000209060060201600091509150508060000160009054906101000a900473ffffffffffffffffffffffffffffffffffffffff16908060010180546105f490610bf9565b80601f016020809104026020016040519081016040528092919081815260200182805461062090610bf9565b801561066d5780601f106106425761010080835404028352916020019161066d565b820191906000526020600020905b81548152906001019060200180831161065057829003601f168201915b50505050509080600201805461068290610bf9565b80601f01602080910402602001604051908101604052809291908181526020018280546106ae90610bf9565b80156106fb5780601f106106d0576101008083540402835291602001916106fb565b820191906000526020600020905b8154815290600101906020018083116106de57829003601f168201915b5050505050908060030154908060040154908060050154905086565b6000604051905090565b600080fd5b600080fd5b600080fd5b600080fd5b6000601f19601f8301169050919050565b7f4e487b7100000000000000000000000000000000000000000000000000000000600052604160045260246000fd5b61077e82610735565b810181811067ffffffffffffffff8211171561079d5761079c610746565b5b80604052505050565b60006107b0610717565b90506107bc8282610775565b919050565b600067ffffffffffffffff8211156107dc576107db610746565b5b6107e582610735565b9050602081019050919050565b82818337600083830152505050565b600061081461080f846107c1565b6107a6565b9050828152602081018484840111156108305761082f610730565b5b61083b8482856107f2565b509392505050565b600082601f8301126108585761085761072b565b5b8135610868848260208601610801565b91505092915050565b6000819050919050565b61088481610871565b811461088f57600080fd5b50565b6000813590506108a18161087b565b92915050565b600080600080608085870312156108c1576108c0610721565b5b600085013567ffffffffffffffff8111156108df576108de610726565b5b6108eb87828801610843565b945050602085013567ffffffffffffffff81111561090c5761090b610726565b5b61091887828801610843565b935050604061092987828801610892565b925050606061093a87828801610892565b91505092959194509250565b60006020828403121561095c5761095b610721565b5b600061096a84828501610892565b91505092915050565b600073ffffffffffffffffffffffffffffffffffffffff82169050919050565b600061099e82610973565b9050919050565b6109ae81610993565b82525050565b600081519050919050565b600082825260208201905092915050565b60005b838110156109ee5780820151818401526020810190506109d3565b60008484015250505050565b6000610a05826109b4565b610a0f81856109bf565b9350610a1f8185602086016109d0565b610a2881610735565b840191505092915050565b610a3c81610871565b82525050565b600060c082019050610a5760008301896109a5565b8181036020830152610a6981886109fa565b90508181036040830152610a7d81876109fa565b9050610a8c6060830186610a33565b610a996080830185610a33565b610aa660a0830184610a33565b979650505050505050565b6000602082019050610ac66000830184610a33565b92915050565b610ad581610993565b8114610ae057600080fd5b50565b600081359050610af281610acc565b92915050565b60008060408385031215610b0f57610b0e610721565b5b6000610b1d85828601610ae3565b9250506020610b2e85828601610892565b9150509250929050565b7f5061796d656e7420616d6f756e74206d757374206d617463682074686520707260008201527f6963652e00000000000000000000000000000000000000000000000000000000602082015250565b6000610b946024836109bf565b9150610b9f82610b38565b604082019050919050565b60006020820190508181036000830152610bc381610b87565b9050919050565b7f4e487b7100000000000000000000000000000000000000000000000000000000600052602260045260246000fd5b60006002820490506001821680610c1157607f821691505b602082108103610c2457610c23610bca565b5b50919050565b60008190508160005260206000209050919050565b60006020601f8301049050919050565b600082821b905092915050565b600060088302610c8c7fffffffffffffffffffffffffffffffffffffffffffffffffffffffffffffffff82610c4f565b610c968683610c4f565b95508019841693508086168417925050509392505050565b6000819050919050565b6000610cd3610cce610cc984610871565b610cae565b610871565b9050919050565b6000819050919050565b610ced83610cb8565b610d01610cf982610cda565b848454610c5c565b825550505050565b600090565b610d16610d09565b610d21818484610ce4565b505050565b5b81811015610d4557610d3a600082610d0e565b600181019050610d27565b5050565b601f821115610d8a57610d5b81610c2a565b610d6484610c3f565b81016020851015610d73578190505b610d87610d7f85610c3f565b830182610d26565b50505b505050565b600082821c905092915050565b6000610dad60001984600802610d8f565b1980831691505092915050565b6000610dc68383610d9c565b9150826002028217905092915050565b610ddf826109b4565b67ffffffffffffffff811115610df857610df7610746565b5b610e028254610bf9565b610e0d828285610d49565b600060209050601f831160018114610e405760008415610e2e578287015190505b610e388582610dba565b865550610ea0565b601f198416610e4e86610c2a565b60005b82811015610e7657848901518255600182019150602085019450602081019050610e51565b86831015610e935784890151610e8f601f891682610d9c565b8355505b6001600288020188555050505b505050505050565b7f4e487b7100000000000000000000000000000000000000000000000000000000600052601160045260246000fd5b6000610ee282610871565b91507fffffffffffffffffffffffffffffffffffffffffffffffffffffffffffffffff8203610f1457610f13610ea8565b5b600182019050919050565b6000819050919050565b6000610f44610f3f610f3a84610f1f565b610cae565b610871565b9050919050565b610f5481610f29565b82525050565b600060a0820190508181036000830152610f7481886109fa565b90508181036020830152610f8881876109fa565b9050610f976040830186610a33565b610fa46060830185610a33565b610fb16080830184610f4b565b969550505050505056fea264697066735822122014a720481ebce21209df1e6a7aae4312b795858c1aee45a553e9310502331f9b64736f6c63430008120033",
  "linkReferences": {},
  "deployedLinkReferences": {}
}