{
  "_format": "hh-sol-artifact-1",
  "contractName": "LBCProductPage",
  "sourceName": "contracts/LbcProduct.sol",
  "abi": [
    {
      "inputs": [
        {
          "internalType": "address",
          "name": "_LBCRegistryAddress",
          "type": "address"
        }
      ],
      "stateMutability": "nonpayable",
      "type": "constructor"
    },
    {
      "inputs": [],
      "name": "LbcRegistry",
      "outputs": [
        {
          "internalType": "contract LBCRegistry",
          "name": "",
          "type": "address"
        }
      ],
      "stateMutability": "view",
      "type": "function"
    },
    {
      "inputs": [
        {
          "internalType": "string",
          "name": "_location",
          "type": "string"
        },
        {
          "internalType": "address",
          "name": "_farmerAddress",
          "type": "address"
        },
        {
          "internalType": "uint256",
          "name": "_quantity",
          "type": "uint256"
        },
        {
          "internalType": "uint256",
          "name": "_price",
          "type": "uint256"
        },
        {
          "internalType": "uint256",
          "name": "_date",
          "type": "uint256"
        }
      ],
      "name": "addProduct",
      "outputs": [],
      "stateMutability": "nonpayable",
      "type": "function"
    },
    {
      "inputs": [
        {
          "internalType": "uint256",
          "name": "",
          "type": "uint256"
        }
      ],
      "name": "cocoaProducts",
      "outputs": [
        {
          "internalType": "address",
          "name": "LBC",
          "type": "address"
        },
        {
          "internalType": "address",
          "name": "farmer",
          "type": "address"
        },
        {
          "internalType": "string",
          "name": "location",
          "type": "string"
        },
        {
          "internalType": "uint256",
          "name": "quantity",
          "type": "uint256"
        },
        {
          "internalType": "uint256",
          "name": "price",
          "type": "uint256"
        },
        {
          "internalType": "uint256",
          "name": "date",
          "type": "uint256"
        }
      ],
      "stateMutability": "view",
      "type": "function"
    },
    {
      "inputs": [],
      "name": "getProducts",
      "outputs": [
        {
          "components": [
            {
              "internalType": "address",
              "name": "LBC",
              "type": "address"
            },
            {
              "internalType": "address",
              "name": "farmer",
              "type": "address"
            },
            {
              "internalType": "string",
              "name": "location",
              "type": "string"
            },
            {
              "internalType": "uint256",
              "name": "quantity",
              "type": "uint256"
            },
            {
              "internalType": "uint256",
              "name": "price",
              "type": "uint256"
            },
            {
              "internalType": "uint256",
              "name": "date",
              "type": "uint256"
            }
          ],
          "internalType": "struct LBCProductPage.CocoaProduct[]",
          "name": "",
          "type": "tuple[]"
        }
      ],
      "stateMutability": "view",
      "type": "function"
    }
  ],
  "bytecode": "0x60806040523480156200001157600080fd5b5060405162001333380380620013338339818101604052810190620000379190620000e9565b80600160006101000a81548173ffffffffffffffffffffffffffffffffffffffff021916908373ffffffffffffffffffffffffffffffffffffffff160217905550506200011b565b600080fd5b600073ffffffffffffffffffffffffffffffffffffffff82169050919050565b6000620000b18262000084565b9050919050565b620000c381620000a4565b8114620000cf57600080fd5b50565b600081519050620000e381620000b8565b92915050565b6000602082840312156200010257620001016200007f565b5b60006200011284828501620000d2565b91505092915050565b611208806200012b6000396000f3fe608060405234801561001057600080fd5b506004361061004c5760003560e01c8063adf0755714610051578063ba0179691461006f578063c29b2f201461008b578063ffd03090146100a9575b600080fd5b6100596100de565b60405161006691906107e5565b60405180910390f35b610089600480360381019061008491906109ce565b610104565b005b610093610334565b6040516100a09190610c4d565b60405180910390f35b6100c360048036038101906100be9190610c6f565b6105f0565b6040516100d596959493929190610d04565b60405180910390f35b600160009054906101000a900473ffffffffffffffffffffffffffffffffffffffff1681565b600160009054906101000a900473ffffffffffffffffffffffffffffffffffffffff1673ffffffffffffffffffffffffffffffffffffffff1663ff4934cd336040518263ffffffff1660e01b815260040161015f9190610d6c565b602060405180830381865afa15801561017c573d6000803e3d6000fd5b505050506040513d601f19601f820116820180604052508101906101a09190610dbf565b6101df576040517f08c379a00000000000000000000000000000000000000000000000000000000081526004016101d690610e38565b60405180910390fd5b60006040518060c001604052803373ffffffffffffffffffffffffffffffffffffffff1681526020018673ffffffffffffffffffffffffffffffffffffffff168152602001878152602001858152602001848152602001838152509050600081908060018154018082558091505060019003906000526020600020906006020160009091909190915060008201518160000160006101000a81548173ffffffffffffffffffffffffffffffffffffffff021916908373ffffffffffffffffffffffffffffffffffffffff16021790555060208201518160010160006101000a81548173ffffffffffffffffffffffffffffffffffffffff021916908373ffffffffffffffffffffffffffffffffffffffff160217905550604082015181600201908161030b919061105a565b50606082015181600301556080820151816004015560a082015181600501555050505050505050565b60606000808054905067ffffffffffffffff8111156103565761035561082f565b5b60405190808252806020026020018201604052801561038f57816020015b61037c610704565b8152602001906001900390816103745790505b5090506000805b6000805490508110156105e4573373ffffffffffffffffffffffffffffffffffffffff16600082815481106103ce576103cd61112c565b5b906000526020600020906006020160010160009054906101000a900473ffffffffffffffffffffffffffffffffffffffff1673ffffffffffffffffffffffffffffffffffffffff16036105d1576000818154811061042f5761042e61112c565b5b90600052602060002090600602016040518060c00160405290816000820160009054906101000a900473ffffffffffffffffffffffffffffffffffffffff1673ffffffffffffffffffffffffffffffffffffffff1673ffffffffffffffffffffffffffffffffffffffff1681526020016001820160009054906101000a900473ffffffffffffffffffffffffffffffffffffffff1673ffffffffffffffffffffffffffffffffffffffff1673ffffffffffffffffffffffffffffffffffffffff16815260200160028201805461050490610e87565b80601f016020809104026020016040519081016040528092919081815260200182805461053090610e87565b801561057d5780601f106105525761010080835404028352916020019161057d565b820191906000526020600020905b81548152906001019060200180831161056057829003601f168201915b5050505050815260200160038201548152602001600482015481526020016005820154815250508383815181106105b7576105b661112c565b5b602002602001018190525081806105cd9061118a565b9250505b80806105dc9061118a565b915050610396565b50808252819250505090565b6000818154811061060057600080fd5b90600052602060002090600602016000915090508060000160009054906101000a900473ffffffffffffffffffffffffffffffffffffffff16908060010160009054906101000a900473ffffffffffffffffffffffffffffffffffffffff169080600201805461066f90610e87565b80601f016020809104026020016040519081016040528092919081815260200182805461069b90610e87565b80156106e85780601f106106bd576101008083540402835291602001916106e8565b820191906000526020600020905b8154815290600101906020018083116106cb57829003601f168201915b5050505050908060030154908060040154908060050154905086565b6040518060c00160405280600073ffffffffffffffffffffffffffffffffffffffff168152602001600073ffffffffffffffffffffffffffffffffffffffff168152602001606081526020016000815260200160008152602001600081525090565b600073ffffffffffffffffffffffffffffffffffffffff82169050919050565b6000819050919050565b60006107ab6107a66107a184610766565b610786565b610766565b9050919050565b60006107bd82610790565b9050919050565b60006107cf826107b2565b9050919050565b6107df816107c4565b82525050565b60006020820190506107fa60008301846107d6565b92915050565b6000604051905090565b600080fd5b600080fd5b600080fd5b600080fd5b6000601f19601f8301169050919050565b7f4e487b7100000000000000000000000000000000000000000000000000000000600052604160045260246000fd5b6108678261081e565b810181811067ffffffffffffffff821117156108865761088561082f565b5b80604052505050565b6000610899610800565b90506108a5828261085e565b919050565b600067ffffffffffffffff8211156108c5576108c461082f565b5b6108ce8261081e565b9050602081019050919050565b82818337600083830152505050565b60006108fd6108f8846108aa565b61088f565b90508281526020810184848401111561091957610918610819565b5b6109248482856108db565b509392505050565b600082601f83011261094157610940610814565b5b81356109518482602086016108ea565b91505092915050565b600061096582610766565b9050919050565b6109758161095a565b811461098057600080fd5b50565b6000813590506109928161096c565b92915050565b6000819050919050565b6109ab81610998565b81146109b657600080fd5b50565b6000813590506109c8816109a2565b92915050565b600080600080600060a086880312156109ea576109e961080a565b5b600086013567ffffffffffffffff811115610a0857610a0761080f565b5b610a148882890161092c565b9550506020610a2588828901610983565b9450506040610a36888289016109b9565b9350506060610a47888289016109b9565b9250506080610a58888289016109b9565b9150509295509295909350565b600081519050919050565b600082825260208201905092915050565b6000819050602082019050919050565b610a9a8161095a565b82525050565b600081519050919050565b600082825260208201905092915050565b60005b83811015610ada578082015181840152602081019050610abf565b60008484015250505050565b6000610af182610aa0565b610afb8185610aab565b9350610b0b818560208601610abc565b610b148161081e565b840191505092915050565b610b2881610998565b82525050565b600060c083016000830151610b466000860182610a91565b506020830151610b596020860182610a91565b5060408301518482036040860152610b718282610ae6565b9150506060830151610b866060860182610b1f565b506080830151610b996080860182610b1f565b5060a0830151610bac60a0860182610b1f565b508091505092915050565b6000610bc38383610b2e565b905092915050565b6000602082019050919050565b6000610be382610a65565b610bed8185610a70565b935083602082028501610bff85610a81565b8060005b85811015610c3b5784840389528151610c1c8582610bb7565b9450610c2783610bcb565b925060208a01995050600181019050610c03565b50829750879550505050505092915050565b60006020820190508181036000830152610c678184610bd8565b905092915050565b600060208284031215610c8557610c8461080a565b5b6000610c93848285016109b9565b91505092915050565b610ca58161095a565b82525050565b600082825260208201905092915050565b6000610cc782610aa0565b610cd18185610cab565b9350610ce1818560208601610abc565b610cea8161081e565b840191505092915050565b610cfe81610998565b82525050565b600060c082019050610d196000830189610c9c565b610d266020830188610c9c565b8181036040830152610d388187610cbc565b9050610d476060830186610cf5565b610d546080830185610cf5565b610d6160a0830184610cf5565b979650505050505050565b6000602082019050610d816000830184610c9c565b92915050565b60008115159050919050565b610d9c81610d87565b8114610da757600080fd5b50565b600081519050610db981610d93565b92915050565b600060208284031215610dd557610dd461080a565b5b6000610de384828501610daa565b91505092915050565b7f4c4243206973206e6f7420726567697374657265640000000000000000000000600082015250565b6000610e22601583610cab565b9150610e2d82610dec565b602082019050919050565b60006020820190508181036000830152610e5181610e15565b9050919050565b7f4e487b7100000000000000000000000000000000000000000000000000000000600052602260045260246000fd5b60006002820490506001821680610e9f57607f821691505b602082108103610eb257610eb1610e58565b5b50919050565b60008190508160005260206000209050919050565b60006020601f8301049050919050565b600082821b905092915050565b600060088302610f1a7fffffffffffffffffffffffffffffffffffffffffffffffffffffffffffffffff82610edd565b610f248683610edd565b95508019841693508086168417925050509392505050565b6000610f57610f52610f4d84610998565b610786565b610998565b9050919050565b6000819050919050565b610f7183610f3c565b610f85610f7d82610f5e565b848454610eea565b825550505050565b600090565b610f9a610f8d565b610fa5818484610f68565b505050565b5b81811015610fc957610fbe600082610f92565b600181019050610fab565b5050565b601f82111561100e57610fdf81610eb8565b610fe884610ecd565b81016020851015610ff7578190505b61100b61100385610ecd565b830182610faa565b50505b505050565b600082821c905092915050565b600061103160001984600802611013565b1980831691505092915050565b600061104a8383611020565b9150826002028217905092915050565b61106382610aa0565b67ffffffffffffffff81111561107c5761107b61082f565b5b6110868254610e87565b611091828285610fcd565b600060209050601f8311600181146110c457600084156110b2578287015190505b6110bc858261103e565b865550611124565b601f1984166110d286610eb8565b60005b828110156110fa578489015182556001820191506020850194506020810190506110d5565b868310156111175784890151611113601f891682611020565b8355505b6001600288020188555050505b505050505050565b7f4e487b7100000000000000000000000000000000000000000000000000000000600052603260045260246000fd5b7f4e487b7100000000000000000000000000000000000000000000000000000000600052601160045260246000fd5b600061119582610998565b91507fffffffffffffffffffffffffffffffffffffffffffffffffffffffffffffffff82036111c7576111c661115b565b5b60018201905091905056fea2646970667358221220e715a1d7e757d3750f8d51a34d805da347041668d91d28660834d2a5d68d2fe064736f6c63430008120033",
  "linkReferences": {},
  "deployedLinkReferences": {}
}