{
  "_format": "hh-sol-artifact-1",
  "contractName": "LBCRegistry",
  "sourceName": "contracts/lbc.sol",
  "abi": [
    {
      "anonymous": false,
      "inputs": [
        {
          "indexed": false,
          "internalType": "string",
          "name": "_name",
          "type": "string"
        },
        {
          "indexed": false,
          "internalType": "string",
          "name": "_location",
          "type": "string"
        },
        {
          "indexed": false,
          "internalType": "uint256",
          "name": "_dateCreated",
          "type": "uint256"
        }
      ],
      "name": "LBCCreated",
      "type": "event"
    },
    {
      "inputs": [
        {
          "internalType": "address",
          "name": "_lbcs",
          "type": "address"
        }
      ],
      "name": "isLBCRegistered",
      "outputs": [
        {
          "internalType": "bool",
          "name": "",
          "type": "bool"
        }
      ],
      "stateMutability": "view",
      "type": "function"
    },
    {
      "inputs": [
        {
          "internalType": "address",
          "name": "",
          "type": "address"
        },
        {
          "internalType": "uint256",
          "name": "",
          "type": "uint256"
        }
      ],
      "name": "lbcs",
      "outputs": [
        {
          "internalType": "string",
          "name": "name",
          "type": "string"
        },
        {
          "internalType": "string",
          "name": "location",
          "type": "string"
        },
        {
          "internalType": "uint256",
          "name": "dateCreated",
          "type": "uint256"
        }
      ],
      "stateMutability": "view",
      "type": "function"
    },
    {
      "inputs": [],
      "name": "lbcsCount",
      "outputs": [
        {
          "internalType": "uint256",
          "name": "",
          "type": "uint256"
        }
      ],
      "stateMutability": "view",
      "type": "function"
    },
    {
      "inputs": [
        {
          "internalType": "string",
          "name": "_name",
          "type": "string"
        },
        {
          "internalType": "string",
          "name": "_location",
          "type": "string"
        },
        {
          "internalType": "uint256",
          "name": "_dateCreated",
          "type": "uint256"
        }
      ],
      "name": "registerLBC",
      "outputs": [],
      "stateMutability": "nonpayable",
      "type": "function"
    },
    {
      "inputs": [
        {
          "internalType": "address",
          "name": "",
          "type": "address"
        }
      ],
      "name": "registeredLBC",
      "outputs": [
        {
          "internalType": "bool",
          "name": "",
          "type": "bool"
        }
      ],
      "stateMutability": "view",
      "type": "function"
    },
    {
      "inputs": [
        {
          "internalType": "uint256",
          "name": "",
          "type": "uint256"
        }
      ],
      "name": "typeLBC",
      "outputs": [
        {
          "internalType": "string",
          "name": "name",
          "type": "string"
        },
        {
          "internalType": "string",
          "name": "location",
          "type": "string"
        },
        {
          "internalType": "uint256",
          "name": "dateCreated",
          "type": "uint256"
        }
      ],
      "stateMutability": "view",
      "type": "function"
    }
  ],
  "bytecode": "0x608060405234801561001057600080fd5b50610dda806100206000396000f3fe608060405234801561001057600080fd5b50600436106100625760003560e01c806314c04868146100675780631a43cbe4146100995780632366378c146100b557806347c5fb81146100d35780635821f96f14610105578063ff4934cd14610135575b600080fd5b610081600480360381019061007c91906106c0565b610165565b6040516100909392919061079f565b60405180910390f35b6100b360048036038101906100ae9190610919565b6102bc565b005b6100bd610453565b6040516100ca91906109a4565b60405180910390f35b6100ed60048036038101906100e891906109bf565b610459565b6040516100fc9392919061079f565b60405180910390f35b61011f600480360381019061011a91906109ec565b6105a3565b60405161012c9190610a34565b60405180910390f35b61014f600480360381019061014a91906109ec565b6105c3565b60405161015c9190610a34565b60405180910390f35b6001602052816000526040600020818154811061018157600080fd5b9060005260206000209060030201600091509150508060000180546101a590610a7e565b80601f01602080910402602001604051908101604052809291908181526020018280546101d190610a7e565b801561021e5780601f106101f35761010080835404028352916020019161021e565b820191906000526020600020905b81548152906001019060200180831161020157829003601f168201915b50505050509080600101805461023390610a7e565b80601f016020809104026020016040519081016040528092919081815260200182805461025f90610a7e565b80156102ac5780601f10610281576101008083540402835291602001916102ac565b820191906000526020600020905b81548152906001019060200180831161028f57829003601f168201915b5050505050908060020154905083565b60006040518060600160405280858152602001848152602001838152509050600160003373ffffffffffffffffffffffffffffffffffffffff1673ffffffffffffffffffffffffffffffffffffffff16815260200190815260200160002081908060018154018082558091505060019003906000526020600020906003020160009091909190915060008201518160000190816103599190610c5b565b50602082015181600101908161036f9190610c5b565b506040820151816002015550506002600081548092919061038f90610d5c565b91905055506003604051806060016040528086815260200185815260200184815250908060018154018082558091505060019003906000526020600020906003020160009091909190915060008201518160000190816103ef9190610c5b565b5060208201518160010190816104059190610c5b565b506040820151816002015550507f510a729d3e82e6e8d91263ef6f89dd907b609b71487d925853c1759bc18906748484846040516104459392919061079f565b60405180910390a150505050565b60025481565b6003818154811061046957600080fd5b906000526020600020906003020160009150905080600001805461048c90610a7e565b80601f01602080910402602001604051908101604052809291908181526020018280546104b890610a7e565b80156105055780601f106104da57610100808354040283529160200191610505565b820191906000526020600020905b8154815290600101906020018083116104e857829003601f168201915b50505050509080600101805461051a90610a7e565b80601f016020809104026020016040519081016040528092919081815260200182805461054690610a7e565b80156105935780601f1061056857610100808354040283529160200191610593565b820191906000526020600020905b81548152906001019060200180831161057657829003601f168201915b5050505050908060020154905083565b60006020528060005260406000206000915054906101000a900460ff1681565b60008060008373ffffffffffffffffffffffffffffffffffffffff1673ffffffffffffffffffffffffffffffffffffffff16815260200190815260200160002060009054906101000a900460ff169050919050565b6000604051905090565b600080fd5b600080fd5b600073ffffffffffffffffffffffffffffffffffffffff82169050919050565b60006106578261062c565b9050919050565b6106678161064c565b811461067257600080fd5b50565b6000813590506106848161065e565b92915050565b6000819050919050565b61069d8161068a565b81146106a857600080fd5b50565b6000813590506106ba81610694565b92915050565b600080604083850312156106d7576106d6610622565b5b60006106e585828601610675565b92505060206106f6858286016106ab565b9150509250929050565b600081519050919050565b600082825260208201905092915050565b60005b8381101561073a57808201518184015260208101905061071f565b60008484015250505050565b6000601f19601f8301169050919050565b600061076282610700565b61076c818561070b565b935061077c81856020860161071c565b61078581610746565b840191505092915050565b6107998161068a565b82525050565b600060608201905081810360008301526107b98186610757565b905081810360208301526107cd8185610757565b90506107dc6040830184610790565b949350505050565b600080fd5b600080fd5b7f4e487b7100000000000000000000000000000000000000000000000000000000600052604160045260246000fd5b61082682610746565b810181811067ffffffffffffffff82111715610845576108446107ee565b5b80604052505050565b6000610858610618565b9050610864828261081d565b919050565b600067ffffffffffffffff821115610884576108836107ee565b5b61088d82610746565b9050602081019050919050565b82818337600083830152505050565b60006108bc6108b784610869565b61084e565b9050828152602081018484840111156108d8576108d76107e9565b5b6108e384828561089a565b509392505050565b600082601f830112610900576108ff6107e4565b5b81356109108482602086016108a9565b91505092915050565b60008060006060848603121561093257610931610622565b5b600084013567ffffffffffffffff8111156109505761094f610627565b5b61095c868287016108eb565b935050602084013567ffffffffffffffff81111561097d5761097c610627565b5b610989868287016108eb565b925050604061099a868287016106ab565b9150509250925092565b60006020820190506109b96000830184610790565b92915050565b6000602082840312156109d5576109d4610622565b5b60006109e3848285016106ab565b91505092915050565b600060208284031215610a0257610a01610622565b5b6000610a1084828501610675565b91505092915050565b60008115159050919050565b610a2e81610a19565b82525050565b6000602082019050610a496000830184610a25565b92915050565b7f4e487b7100000000000000000000000000000000000000000000000000000000600052602260045260246000fd5b60006002820490506001821680610a9657607f821691505b602082108103610aa957610aa8610a4f565b5b50919050565b60008190508160005260206000209050919050565b60006020601f8301049050919050565b600082821b905092915050565b600060088302610b117fffffffffffffffffffffffffffffffffffffffffffffffffffffffffffffffff82610ad4565b610b1b8683610ad4565b95508019841693508086168417925050509392505050565b6000819050919050565b6000610b58610b53610b4e8461068a565b610b33565b61068a565b9050919050565b6000819050919050565b610b7283610b3d565b610b86610b7e82610b5f565b848454610ae1565b825550505050565b600090565b610b9b610b8e565b610ba6818484610b69565b505050565b5b81811015610bca57610bbf600082610b93565b600181019050610bac565b5050565b601f821115610c0f57610be081610aaf565b610be984610ac4565b81016020851015610bf8578190505b610c0c610c0485610ac4565b830182610bab565b50505b505050565b600082821c905092915050565b6000610c3260001984600802610c14565b1980831691505092915050565b6000610c4b8383610c21565b9150826002028217905092915050565b610c6482610700565b67ffffffffffffffff811115610c7d57610c7c6107ee565b5b610c878254610a7e565b610c92828285610bce565b600060209050601f831160018114610cc55760008415610cb3578287015190505b610cbd8582610c3f565b865550610d25565b601f198416610cd386610aaf565b60005b82811015610cfb57848901518255600182019150602085019450602081019050610cd6565b86831015610d185784890151610d14601f891682610c21565b8355505b6001600288020188555050505b505050505050565b7f4e487b7100000000000000000000000000000000000000000000000000000000600052601160045260246000fd5b6000610d678261068a565b91507fffffffffffffffffffffffffffffffffffffffffffffffffffffffffffffffff8203610d9957610d98610d2d565b5b60018201905091905056fea26469706673582212205b6ca0cd4dc135406ec775fcd3fed81a7d6d4685dc2485132b141f3ab4122bea64736f6c63430008120033",
  "linkReferences": {},
  "deployedLinkReferences": {}
}