{
  "_format": "hh-sol-artifact-1",
  "contractName": "LBCRegistry",
  "sourceName": "contracts/lbc.sol",
  "abi": [
    {
      "anonymous": false,
      "inputs": [
        {
          "indexed": false,
          "internalType": "string",
          "name": "_name",
          "type": "string"
        },
        {
          "indexed": false,
          "internalType": "string",
          "name": "_location",
          "type": "string"
        },
        {
          "indexed": false,
          "internalType": "uint256",
          "name": "_dateCreated",
          "type": "uint256"
        }
      ],
      "name": "LBCCreated",
      "type": "event"
    },
    {
      "inputs": [
        {
          "internalType": "address",
          "name": "",
          "type": "address"
        },
        {
          "internalType": "uint256",
          "name": "",
          "type": "uint256"
        }
      ],
      "name": "lbcs",
      "outputs": [
        {
          "internalType": "string",
          "name": "name",
          "type": "string"
        },
        {
          "internalType": "string",
          "name": "location",
          "type": "string"
        },
        {
          "internalType": "uint256",
          "name": "dateCreated",
          "type": "uint256"
        }
      ],
      "stateMutability": "view",
      "type": "function"
    },
    {
      "inputs": [],
      "name": "lbcsCount",
      "outputs": [
        {
          "internalType": "uint256",
          "name": "",
          "type": "uint256"
        }
      ],
      "stateMutability": "view",
      "type": "function"
    },
    {
      "inputs": [
        {
          "internalType": "string",
          "name": "_name",
          "type": "string"
        },
        {
          "internalType": "string",
          "name": "_location",
          "type": "string"
        },
        {
          "internalType": "uint256",
          "name": "_dateCreated",
          "type": "uint256"
        }
      ],
      "name": "registerLBC",
      "outputs": [],
      "stateMutability": "nonpayable",
      "type": "function"
    },
    {
      "inputs": [
        {
          "internalType": "uint256",
          "name": "",
          "type": "uint256"
        }
      ],
      "name": "typeLBC",
      "outputs": [
        {
          "internalType": "string",
          "name": "name",
          "type": "string"
        },
        {
          "internalType": "string",
          "name": "location",
          "type": "string"
        },
        {
          "internalType": "uint256",
          "name": "dateCreated",
          "type": "uint256"
        }
      ],
      "stateMutability": "view",
      "type": "function"
    }
  ],
  "bytecode": "0x608060405234801561001057600080fd5b50610c8b806100206000396000f3fe608060405234801561001057600080fd5b506004361061004c5760003560e01c806314c04868146100515780631a43cbe4146100835780632366378c1461009f57806347c5fb81146100bd575b600080fd5b61006b600480360381019061006691906105d4565b6100ef565b60405161007a939291906106b3565b60405180910390f35b61009d6004803603810190610098919061082d565b610246565b005b6100a76103dc565b6040516100b491906108b8565b60405180910390f35b6100d760048036038101906100d291906108d3565b6103e2565b6040516100e6939291906106b3565b60405180910390f35b6000602052816000526040600020818154811061010b57600080fd5b90600052602060002090600302016000915091505080600001805461012f9061092f565b80601f016020809104026020016040519081016040528092919081815260200182805461015b9061092f565b80156101a85780601f1061017d576101008083540402835291602001916101a8565b820191906000526020600020905b81548152906001019060200180831161018b57829003601f168201915b5050505050908060010180546101bd9061092f565b80601f01602080910402602001604051908101604052809291908181526020018280546101e99061092f565b80156102365780601f1061020b57610100808354040283529160200191610236565b820191906000526020600020905b81548152906001019060200180831161021957829003601f168201915b5050505050908060020154905083565b600060405180606001604052808581526020018481526020018381525090506000803373ffffffffffffffffffffffffffffffffffffffff1673ffffffffffffffffffffffffffffffffffffffff16815260200190815260200160002081908060018154018082558091505060019003906000526020600020906003020160009091909190915060008201518160000190816102e29190610b0c565b5060208201518160010190816102f89190610b0c565b506040820151816002015550506001600081548092919061031890610c0d565b91905055506002604051806060016040528086815260200185815260200184815250908060018154018082558091505060019003906000526020600020906003020160009091909190915060008201518160000190816103789190610b0c565b50602082015181600101908161038e9190610b0c565b506040820151816002015550507f510a729d3e82e6e8d91263ef6f89dd907b609b71487d925853c1759bc18906748484846040516103ce939291906106b3565b60405180910390a150505050565b60015481565b600281815481106103f257600080fd5b90600052602060002090600302016000915090508060000180546104159061092f565b80601f01602080910402602001604051908101604052809291908181526020018280546104419061092f565b801561048e5780601f106104635761010080835404028352916020019161048e565b820191906000526020600020905b81548152906001019060200180831161047157829003601f168201915b5050505050908060010180546104a39061092f565b80601f01602080910402602001604051908101604052809291908181526020018280546104cf9061092f565b801561051c5780601f106104f15761010080835404028352916020019161051c565b820191906000526020600020905b8154815290600101906020018083116104ff57829003601f168201915b5050505050908060020154905083565b6000604051905090565b600080fd5b600080fd5b600073ffffffffffffffffffffffffffffffffffffffff82169050919050565b600061056b82610540565b9050919050565b61057b81610560565b811461058657600080fd5b50565b60008135905061059881610572565b92915050565b6000819050919050565b6105b18161059e565b81146105bc57600080fd5b50565b6000813590506105ce816105a8565b92915050565b600080604083850312156105eb576105ea610536565b5b60006105f985828601610589565b925050602061060a858286016105bf565b9150509250929050565b600081519050919050565b600082825260208201905092915050565b60005b8381101561064e578082015181840152602081019050610633565b60008484015250505050565b6000601f19601f8301169050919050565b600061067682610614565b610680818561061f565b9350610690818560208601610630565b6106998161065a565b840191505092915050565b6106ad8161059e565b82525050565b600060608201905081810360008301526106cd818661066b565b905081810360208301526106e1818561066b565b90506106f060408301846106a4565b949350505050565b600080fd5b600080fd5b7f4e487b7100000000000000000000000000000000000000000000000000000000600052604160045260246000fd5b61073a8261065a565b810181811067ffffffffffffffff8211171561075957610758610702565b5b80604052505050565b600061076c61052c565b90506107788282610731565b919050565b600067ffffffffffffffff82111561079857610797610702565b5b6107a18261065a565b9050602081019050919050565b82818337600083830152505050565b60006107d06107cb8461077d565b610762565b9050828152602081018484840111156107ec576107eb6106fd565b5b6107f78482856107ae565b509392505050565b600082601f830112610814576108136106f8565b5b81356108248482602086016107bd565b91505092915050565b60008060006060848603121561084657610845610536565b5b600084013567ffffffffffffffff8111156108645761086361053b565b5b610870868287016107ff565b935050602084013567ffffffffffffffff8111156108915761089061053b565b5b61089d868287016107ff565b92505060406108ae868287016105bf565b9150509250925092565b60006020820190506108cd60008301846106a4565b92915050565b6000602082840312156108e9576108e8610536565b5b60006108f7848285016105bf565b91505092915050565b7f4e487b7100000000000000000000000000000000000000000000000000000000600052602260045260246000fd5b6000600282049050600182168061094757607f821691505b60208210810361095a57610959610900565b5b50919050565b60008190508160005260206000209050919050565b60006020601f8301049050919050565b600082821b905092915050565b6000600883026109c27fffffffffffffffffffffffffffffffffffffffffffffffffffffffffffffffff82610985565b6109cc8683610985565b95508019841693508086168417925050509392505050565b6000819050919050565b6000610a09610a046109ff8461059e565b6109e4565b61059e565b9050919050565b6000819050919050565b610a23836109ee565b610a37610a2f82610a10565b848454610992565b825550505050565b600090565b610a4c610a3f565b610a57818484610a1a565b505050565b5b81811015610a7b57610a70600082610a44565b600181019050610a5d565b5050565b601f821115610ac057610a9181610960565b610a9a84610975565b81016020851015610aa9578190505b610abd610ab585610975565b830182610a5c565b50505b505050565b600082821c905092915050565b6000610ae360001984600802610ac5565b1980831691505092915050565b6000610afc8383610ad2565b9150826002028217905092915050565b610b1582610614565b67ffffffffffffffff811115610b2e57610b2d610702565b5b610b38825461092f565b610b43828285610a7f565b600060209050601f831160018114610b765760008415610b64578287015190505b610b6e8582610af0565b865550610bd6565b601f198416610b8486610960565b60005b82811015610bac57848901518255600182019150602085019450602081019050610b87565b86831015610bc95784890151610bc5601f891682610ad2565b8355505b6001600288020188555050505b505050505050565b7f4e487b7100000000000000000000000000000000000000000000000000000000600052601160045260246000fd5b6000610c188261059e565b91507fffffffffffffffffffffffffffffffffffffffffffffffffffffffffffffffff8203610c4a57610c49610bde565b5b60018201905091905056fea26469706673582212209a969c42da7d063bdfa84f223f219d5d42dceede6613add5513de1d6653154f564736f6c63430008120033",
  "linkReferences": {},
  "deployedLinkReferences": {}
}