{
  "_format": "hh-sol-artifact-1",
  "contractName": "QCCProductPage",
  "sourceName": "contracts/QCC.sol",
  "abi": [
    {
      "inputs": [
        {
          "internalType": "address",
          "name": "_assignedQCC",
          "type": "address"
        }
      ],
      "stateMutability": "nonpayable",
      "type": "constructor"
    },
    {
      "inputs": [
        {
          "internalType": "uint256",
          "name": "_batch_id",
          "type": "uint256"
        },
        {
          "internalType": "string",
          "name": "_bean_quality",
          "type": "string"
        },
        {
          "internalType": "string",
          "name": "_moisture_level",
          "type": "string"
        },
        {
          "internalType": "string",
          "name": "_origin",
          "type": "string"
        },
        {
          "internalType": "uint256",
          "name": "_inspection_date",
          "type": "uint256"
        }
      ],
      "name": "addCocoaQuality",
      "outputs": [],
      "stateMutability": "nonpayable",
      "type": "function"
    },
    {
      "inputs": [],
      "name": "assignedQCC",
      "outputs": [
        {
          "internalType": "address",
          "name": "",
          "type": "address"
        }
      ],
      "stateMutability": "view",
      "type": "function"
    },
    {
      "inputs": [
        {
          "internalType": "uint256",
          "name": "",
          "type": "uint256"
        }
      ],
      "name": "cocoaQualities",
      "outputs": [
        {
          "internalType": "address",
          "name": "QCC",
          "type": "address"
        },
        {
          "internalType": "uint256",
          "name": "batch_id",
          "type": "uint256"
        },
        {
          "internalType": "string",
          "name": "bean_quality",
          "type": "string"
        },
        {
          "internalType": "string",
          "name": "moisture_level",
          "type": "string"
        },
        {
          "internalType": "string",
          "name": "origin",
          "type": "string"
        },
        {
          "internalType": "uint256",
          "name": "inspection_date",
          "type": "uint256"
        }
      ],
      "stateMutability": "view",
      "type": "function"
    },
    {
      "inputs": [],
      "name": "getCocoaQualities",
      "outputs": [
        {
          "components": [
            {
              "internalType": "address",
              "name": "QCC",
              "type": "address"
            },
            {
              "internalType": "uint256",
              "name": "batch_id",
              "type": "uint256"
            },
            {
              "internalType": "string",
              "name": "bean_quality",
              "type": "string"
            },
            {
              "internalType": "string",
              "name": "moisture_level",
              "type": "string"
            },
            {
              "internalType": "string",
              "name": "origin",
              "type": "string"
            },
            {
              "internalType": "uint256",
              "name": "inspection_date",
              "type": "uint256"
            }
          ],
          "internalType": "struct QCCProductPage.CocoaQuality[]",
          "name": "",
          "type": "tuple[]"
        }
      ],
      "stateMutability": "view",
      "type": "function"
    }
  ],
  "bytecode": "0x60806040523480156200001157600080fd5b50604051620013c4380380620013c48339818101604052810190620000379190620000e9565b80600160006101000a81548173ffffffffffffffffffffffffffffffffffffffff021916908373ffffffffffffffffffffffffffffffffffffffff160217905550506200011b565b600080fd5b600073ffffffffffffffffffffffffffffffffffffffff82169050919050565b6000620000b18262000084565b9050919050565b620000c381620000a4565b8114620000cf57600080fd5b50565b600081519050620000e381620000b8565b92915050565b6000602082840312156200010257620001016200007f565b5b60006200011284828501620000d2565b91505092915050565b611299806200012b6000396000f3fe608060405234801561001057600080fd5b506004361061004c5760003560e01c80635779c21f14610051578063724903721461006d5780638e00f0531461008b578063cd79800a146100a9575b600080fd5b61006b60048036038101906100669190610a0e565b6100de565b005b610075610288565b6040516100829190610b1e565b60405180910390f35b6100936102ae565b6040516100a09190610d2f565b60405180910390f35b6100c360048036038101906100be9190610d51565b61062e565b6040516100d596959493929190610dd7565b60405180910390f35b600160009054906101000a900473ffffffffffffffffffffffffffffffffffffffff1673ffffffffffffffffffffffffffffffffffffffff163373ffffffffffffffffffffffffffffffffffffffff161461016e576040517f08c379a000000000000000000000000000000000000000000000000000000000815260040161016590610ebf565b60405180910390fd5b60006040518060c001604052803373ffffffffffffffffffffffffffffffffffffffff168152602001878152602001868152602001858152602001848152602001838152509050600081908060018154018082558091505060019003906000526020600020906006020160009091909190915060008201518160000160006101000a81548173ffffffffffffffffffffffffffffffffffffffff021916908373ffffffffffffffffffffffffffffffffffffffff16021790555060208201518160010155604082015181600201908161024791906110eb565b50606082015181600301908161025d91906110eb565b50608082015181600401908161027391906110eb565b5060a082015181600501555050505050505050565b600160009054906101000a900473ffffffffffffffffffffffffffffffffffffffff1681565b60606000808054905067ffffffffffffffff8111156102d0576102cf6108e3565b5b60405190808252806020026020018201604052801561030957816020015b6102f6610832565b8152602001906001900390816102ee5790505b5090506000805b600080549050811015610622573373ffffffffffffffffffffffffffffffffffffffff1660008281548110610348576103476111bd565b5b906000526020600020906006020160000160009054906101000a900473ffffffffffffffffffffffffffffffffffffffff1673ffffffffffffffffffffffffffffffffffffffff160361060f57600081815481106103a9576103a86111bd565b5b90600052602060002090600602016040518060c00160405290816000820160009054906101000a900473ffffffffffffffffffffffffffffffffffffffff1673ffffffffffffffffffffffffffffffffffffffff1673ffffffffffffffffffffffffffffffffffffffff1681526020016001820154815260200160028201805461043290610f0e565b80601f016020809104026020016040519081016040528092919081815260200182805461045e90610f0e565b80156104ab5780601f10610480576101008083540402835291602001916104ab565b820191906000526020600020905b81548152906001019060200180831161048e57829003601f168201915b505050505081526020016003820180546104c490610f0e565b80601f01602080910402602001604051908101604052809291908181526020018280546104f090610f0e565b801561053d5780601f106105125761010080835404028352916020019161053d565b820191906000526020600020905b81548152906001019060200180831161052057829003601f168201915b5050505050815260200160048201805461055690610f0e565b80601f016020809104026020016040519081016040528092919081815260200182805461058290610f0e565b80156105cf5780601f106105a4576101008083540402835291602001916105cf565b820191906000526020600020905b8154815290600101906020018083116105b257829003601f168201915b505050505081526020016005820154815250508383815181106105f5576105f46111bd565b5b6020026020010181905250818061060b9061121b565b9250505b808061061a9061121b565b915050610310565b50808252819250505090565b6000818154811061063e57600080fd5b90600052602060002090600602016000915090508060000160009054906101000a900473ffffffffffffffffffffffffffffffffffffffff169080600101549080600201805461068d90610f0e565b80601f01602080910402602001604051908101604052809291908181526020018280546106b990610f0e565b80156107065780601f106106db57610100808354040283529160200191610706565b820191906000526020600020905b8154815290600101906020018083116106e957829003601f168201915b50505050509080600301805461071b90610f0e565b80601f016020809104026020016040519081016040528092919081815260200182805461074790610f0e565b80156107945780601f1061076957610100808354040283529160200191610794565b820191906000526020600020905b81548152906001019060200180831161077757829003601f168201915b5050505050908060040180546107a990610f0e565b80601f01602080910402602001604051908101604052809291908181526020018280546107d590610f0e565b80156108225780601f106107f757610100808354040283529160200191610822565b820191906000526020600020905b81548152906001019060200180831161080557829003601f168201915b5050505050908060050154905086565b6040518060c00160405280600073ffffffffffffffffffffffffffffffffffffffff16815260200160008152602001606081526020016060815260200160608152602001600081525090565b6000604051905090565b600080fd5b600080fd5b6000819050919050565b6108a581610892565b81146108b057600080fd5b50565b6000813590506108c28161089c565b92915050565b600080fd5b600080fd5b6000601f19601f8301169050919050565b7f4e487b7100000000000000000000000000000000000000000000000000000000600052604160045260246000fd5b61091b826108d2565b810181811067ffffffffffffffff8211171561093a576109396108e3565b5b80604052505050565b600061094d61087e565b90506109598282610912565b919050565b600067ffffffffffffffff821115610979576109786108e3565b5b610982826108d2565b9050602081019050919050565b82818337600083830152505050565b60006109b16109ac8461095e565b610943565b9050828152602081018484840111156109cd576109cc6108cd565b5b6109d884828561098f565b509392505050565b600082601f8301126109f5576109f46108c8565b5b8135610a0584826020860161099e565b91505092915050565b600080600080600060a08688031215610a2a57610a29610888565b5b6000610a38888289016108b3565b955050602086013567ffffffffffffffff811115610a5957610a5861088d565b5b610a65888289016109e0565b945050604086013567ffffffffffffffff811115610a8657610a8561088d565b5b610a92888289016109e0565b935050606086013567ffffffffffffffff811115610ab357610ab261088d565b5b610abf888289016109e0565b9250506080610ad0888289016108b3565b9150509295509295909350565b600073ffffffffffffffffffffffffffffffffffffffff82169050919050565b6000610b0882610add565b9050919050565b610b1881610afd565b82525050565b6000602082019050610b336000830184610b0f565b92915050565b600081519050919050565b600082825260208201905092915050565b6000819050602082019050919050565b610b6e81610afd565b82525050565b610b7d81610892565b82525050565b600081519050919050565b600082825260208201905092915050565b60005b83811015610bbd578082015181840152602081019050610ba2565b60008484015250505050565b6000610bd482610b83565b610bde8185610b8e565b9350610bee818560208601610b9f565b610bf7816108d2565b840191505092915050565b600060c083016000830151610c1a6000860182610b65565b506020830151610c2d6020860182610b74565b5060408301518482036040860152610c458282610bc9565b91505060608301518482036060860152610c5f8282610bc9565b91505060808301518482036080860152610c798282610bc9565b91505060a0830151610c8e60a0860182610b74565b508091505092915050565b6000610ca58383610c02565b905092915050565b6000602082019050919050565b6000610cc582610b39565b610ccf8185610b44565b935083602082028501610ce185610b55565b8060005b85811015610d1d5784840389528151610cfe8582610c99565b9450610d0983610cad565b925060208a01995050600181019050610ce5565b50829750879550505050505092915050565b60006020820190508181036000830152610d498184610cba565b905092915050565b600060208284031215610d6757610d66610888565b5b6000610d75848285016108b3565b91505092915050565b610d8781610892565b82525050565b600082825260208201905092915050565b6000610da982610b83565b610db38185610d8d565b9350610dc3818560208601610b9f565b610dcc816108d2565b840191505092915050565b600060c082019050610dec6000830189610b0f565b610df96020830188610d7e565b8181036040830152610e0b8187610d9e565b90508181036060830152610e1f8186610d9e565b90508181036080830152610e338185610d9e565b9050610e4260a0830184610d7e565b979650505050505050565b7f4f6e6c79207468652061737369676e6564205143432063616e2063616c6c207460008201527f6869732066756e6374696f6e0000000000000000000000000000000000000000602082015250565b6000610ea9602c83610d8d565b9150610eb482610e4d565b604082019050919050565b60006020820190508181036000830152610ed881610e9c565b9050919050565b7f4e487b7100000000000000000000000000000000000000000000000000000000600052602260045260246000fd5b60006002820490506001821680610f2657607f821691505b602082108103610f3957610f38610edf565b5b50919050565b60008190508160005260206000209050919050565b60006020601f8301049050919050565b600082821b905092915050565b600060088302610fa17fffffffffffffffffffffffffffffffffffffffffffffffffffffffffffffffff82610f64565b610fab8683610f64565b95508019841693508086168417925050509392505050565b6000819050919050565b6000610fe8610fe3610fde84610892565b610fc3565b610892565b9050919050565b6000819050919050565b61100283610fcd565b61101661100e82610fef565b848454610f71565b825550505050565b600090565b61102b61101e565b611036818484610ff9565b505050565b5b8181101561105a5761104f600082611023565b60018101905061103c565b5050565b601f82111561109f5761107081610f3f565b61107984610f54565b81016020851015611088578190505b61109c61109485610f54565b83018261103b565b50505b505050565b600082821c905092915050565b60006110c2600019846008026110a4565b1980831691505092915050565b60006110db83836110b1565b9150826002028217905092915050565b6110f482610b83565b67ffffffffffffffff81111561110d5761110c6108e3565b5b6111178254610f0e565b61112282828561105e565b600060209050601f8311600181146111555760008415611143578287015190505b61114d85826110cf565b8655506111b5565b601f19841661116386610f3f565b60005b8281101561118b57848901518255600182019150602085019450602081019050611166565b868310156111a857848901516111a4601f8916826110b1565b8355505b6001600288020188555050505b505050505050565b7f4e487b7100000000000000000000000000000000000000000000000000000000600052603260045260246000fd5b7f4e487b7100000000000000000000000000000000000000000000000000000000600052601160045260246000fd5b600061122682610892565b91507fffffffffffffffffffffffffffffffffffffffffffffffffffffffffffffffff8203611258576112576111ec565b5b60018201905091905056fea26469706673582212205649fdc9bea71dba4757a41825e50cfb85acd6b63ad4487a8f0a4115fa2cb54864736f6c63430008120033",
  "linkReferences": {},
  "deployedLinkReferences": {}
}