{
  "_format": "hh-sol-artifact-1",
  "contractName": "Tracking",
  "sourceName": "contracts/Tracking.sol",
  "abi": [
    {
      "inputs": [],
      "stateMutability": "nonpayable",
      "type": "constructor"
    },
    {
      "anonymous": false,
      "inputs": [
        {
          "indexed": true,
          "internalType": "address",
          "name": "_owner",
          "type": "address"
        },
        {
          "indexed": false,
          "internalType": "string",
          "name": "_name",
          "type": "string"
        },
        {
          "indexed": false,
          "internalType": "string",
          "name": "_location",
          "type": "string"
        },
        {
          "indexed": false,
          "internalType": "uint256",
          "name": "_yield",
          "type": "uint256"
        },
        {
          "indexed": false,
          "internalType": "uint256",
          "name": "_dateCreated",
          "type": "uint256"
        },
        {
          "indexed": false,
          "internalType": "uint256",
          "name": "_rating",
          "type": "uint256"
        }
      ],
      "name": "FarmerCreated",
      "type": "event"
    },
    {
      "anonymous": false,
      "inputs": [
        {
          "indexed": true,
          "internalType": "address",
          "name": "sender",
          "type": "address"
        },
        {
          "indexed": true,
          "internalType": "address",
          "name": "receiver",
          "type": "address"
        },
        {
          "indexed": false,
          "internalType": "uint256",
          "name": "pickupTime",
          "type": "uint256"
        },
        {
          "indexed": false,
          "internalType": "uint256",
          "name": "quantity",
          "type": "uint256"
        },
        {
          "indexed": false,
          "internalType": "uint256",
          "name": "price",
          "type": "uint256"
        },
        {
          "indexed": false,
          "internalType": "string",
          "name": "locationType",
          "type": "string"
        }
      ],
      "name": "ShipmentCreated",
      "type": "event"
    },
    {
      "anonymous": false,
      "inputs": [
        {
          "indexed": true,
          "internalType": "address",
          "name": "sender",
          "type": "address"
        },
        {
          "indexed": true,
          "internalType": "address",
          "name": "receiver",
          "type": "address"
        },
        {
          "indexed": false,
          "internalType": "uint256",
          "name": "deliveryTime",
          "type": "uint256"
        }
      ],
      "name": "ShipmentDelivered",
      "type": "event"
    },
    {
      "anonymous": false,
      "inputs": [
        {
          "indexed": true,
          "internalType": "address",
          "name": "sender",
          "type": "address"
        },
        {
          "indexed": true,
          "internalType": "address",
          "name": "receiver",
          "type": "address"
        },
        {
          "indexed": false,
          "internalType": "uint256",
          "name": "pickupTime",
          "type": "uint256"
        }
      ],
      "name": "ShipmentInTransit",
      "type": "event"
    },
    {
      "anonymous": false,
      "inputs": [
        {
          "indexed": true,
          "internalType": "address",
          "name": "sender",
          "type": "address"
        },
        {
          "indexed": true,
          "internalType": "address",
          "name": "receiver",
          "type": "address"
        },
        {
          "indexed": false,
          "internalType": "uint256",
          "name": "amount",
          "type": "uint256"
        }
      ],
      "name": "ShipmentPaid",
      "type": "event"
    },
    {
      "inputs": [
        {
          "internalType": "address",
          "name": "_sender",
          "type": "address"
        },
        {
          "internalType": "address",
          "name": "_receiver",
          "type": "address"
        },
        {
          "internalType": "uint256",
          "name": "_index",
          "type": "uint256"
        }
      ],
      "name": "completeShipment",
      "outputs": [],
      "stateMutability": "nonpayable",
      "type": "function"
    },
    {
      "inputs": [
        {
          "internalType": "address",
          "name": "_receiver",
          "type": "address"
        },
        {
          "internalType": "uint256",
          "name": "_pickupTime",
          "type": "uint256"
        },
        {
          "internalType": "uint256",
          "name": "_quantity",
          "type": "uint256"
        },
        {
          "internalType": "uint256",
          "name": "_price",
          "type": "uint256"
        },
        {
          "internalType": "string",
          "name": "_locationType",
          "type": "string"
        }
      ],
      "name": "createShipment",
      "outputs": [],
      "stateMutability": "payable",
      "type": "function"
    },
    {
      "inputs": [],
      "name": "farmerCount",
      "outputs": [
        {
          "internalType": "uint256",
          "name": "",
          "type": "uint256"
        }
      ],
      "stateMutability": "view",
      "type": "function"
    },
    {
      "inputs": [
        {
          "internalType": "address",
          "name": "",
          "type": "address"
        },
        {
          "internalType": "uint256",
          "name": "",
          "type": "uint256"
        }
      ],
      "name": "farmers",
      "outputs": [
        {
          "internalType": "address",
          "name": "owner",
          "type": "address"
        },
        {
          "internalType": "string",
          "name": "name",
          "type": "string"
        },
        {
          "internalType": "string",
          "name": "location",
          "type": "string"
        },
        {
          "internalType": "uint256",
          "name": "yield",
          "type": "uint256"
        },
        {
          "internalType": "uint256",
          "name": "dateCreated",
          "type": "uint256"
        },
        {
          "internalType": "uint256",
          "name": "rating",
          "type": "uint256"
        }
      ],
      "stateMutability": "view",
      "type": "function"
    },
    {
      "inputs": [],
      "name": "getAllTransactions",
      "outputs": [
        {
          "components": [
            {
              "internalType": "address",
              "name": "sender",
              "type": "address"
            },
            {
              "internalType": "address",
              "name": "receiver",
              "type": "address"
            },
            {
              "internalType": "uint256",
              "name": "pickupTime",
              "type": "uint256"
            },
            {
              "internalType": "uint256",
              "name": "deliveryTime",
              "type": "uint256"
            },
            {
              "internalType": "uint256",
              "name": "quantity",
              "type": "uint256"
            },
            {
              "internalType": "uint256",
              "name": "price",
              "type": "uint256"
            },
            {
              "internalType": "enum Tracking.ShipmentStatus",
              "name": "status",
              "type": "uint8"
            },
            {
              "internalType": "bool",
              "name": "isPaid",
              "type": "bool"
            },
            {
              "internalType": "string",
              "name": "locationType",
              "type": "string"
            }
          ],
          "internalType": "struct Tracking.TyepShipment[]",
          "name": "",
          "type": "tuple[]"
        }
      ],
      "stateMutability": "view",
      "type": "function"
    },
    {
      "inputs": [
        {
          "internalType": "address",
          "name": "_sender",
          "type": "address"
        },
        {
          "internalType": "uint256",
          "name": "_index",
          "type": "uint256"
        }
      ],
      "name": "getShipment",
      "outputs": [
        {
          "internalType": "address",
          "name": "",
          "type": "address"
        },
        {
          "internalType": "address",
          "name": "",
          "type": "address"
        },
        {
          "internalType": "uint256",
          "name": "",
          "type": "uint256"
        },
        {
          "internalType": "uint256",
          "name": "",
          "type": "uint256"
        },
        {
          "internalType": "uint256",
          "name": "",
          "type": "uint256"
        },
        {
          "internalType": "uint256",
          "name": "",
          "type": "uint256"
        },
        {
          "internalType": "enum Tracking.ShipmentStatus",
          "name": "",
          "type": "uint8"
        },
        {
          "internalType": "bool",
          "name": "",
          "type": "bool"
        }
      ],
      "stateMutability": "view",
      "type": "function"
    },
    {
      "inputs": [
        {
          "internalType": "address",
          "name": "_sender",
          "type": "address"
        }
      ],
      "name": "getShipmentsCount",
      "outputs": [
        {
          "internalType": "uint256",
          "name": "",
          "type": "uint256"
        }
      ],
      "stateMutability": "view",
      "type": "function"
    },
    {
      "inputs": [
        {
          "internalType": "string",
          "name": "_name",
          "type": "string"
        },
        {
          "internalType": "string",
          "name": "_location",
          "type": "string"
        },
        {
          "internalType": "uint256",
          "name": "_yield",
          "type": "uint256"
        },
        {
          "internalType": "uint256",
          "name": "_dateCreated",
          "type": "uint256"
        }
      ],
      "name": "registerFarmer",
      "outputs": [],
      "stateMutability": "payable",
      "type": "function"
    },
    {
      "inputs": [],
      "name": "shipmentCount",
      "outputs": [
        {
          "internalType": "uint256",
          "name": "",
          "type": "uint256"
        }
      ],
      "stateMutability": "view",
      "type": "function"
    },
    {
      "inputs": [
        {
          "internalType": "address",
          "name": "",
          "type": "address"
        },
        {
          "internalType": "uint256",
          "name": "",
          "type": "uint256"
        }
      ],
      "name": "shipments",
      "outputs": [
        {
          "internalType": "address",
          "name": "sender",
          "type": "address"
        },
        {
          "internalType": "address",
          "name": "receiver",
          "type": "address"
        },
        {
          "internalType": "uint256",
          "name": "pickupTime",
          "type": "uint256"
        },
        {
          "internalType": "uint256",
          "name": "deliveryTime",
          "type": "uint256"
        },
        {
          "internalType": "uint256",
          "name": "quantity",
          "type": "uint256"
        },
        {
          "internalType": "uint256",
          "name": "price",
          "type": "uint256"
        },
        {
          "internalType": "enum Tracking.ShipmentStatus",
          "name": "status",
          "type": "uint8"
        },
        {
          "internalType": "bool",
          "name": "isPaid",
          "type": "bool"
        },
        {
          "internalType": "string",
          "name": "locationType",
          "type": "string"
        }
      ],
      "stateMutability": "view",
      "type": "function"
    },
    {
      "inputs": [
        {
          "internalType": "address",
          "name": "_sender",
          "type": "address"
        },
        {
          "internalType": "address",
          "name": "_receiver",
          "type": "address"
        },
        {
          "internalType": "uint256",
          "name": "_index",
          "type": "uint256"
        }
      ],
      "name": "startShipment",
      "outputs": [],
      "stateMutability": "nonpayable",
      "type": "function"
    },
    {
      "inputs": [
        {
          "internalType": "uint256",
          "name": "",
          "type": "uint256"
        }
      ],
      "name": "tyepFarmers",
      "outputs": [
        {
          "internalType": "address",
          "name": "owner",
          "type": "address"
        },
        {
          "internalType": "string",
          "name": "name",
          "type": "string"
        },
        {
          "internalType": "string",
          "name": "location",
          "type": "string"
        },
        {
          "internalType": "uint256",
          "name": "yield",
          "type": "uint256"
        },
        {
          "internalType": "uint256",
          "name": "dateCreated",
          "type": "uint256"
        },
        {
          "internalType": "uint256",
          "name": "rating",
          "type": "uint256"
        }
      ],
      "stateMutability": "view",
      "type": "function"
    }
  ],
  "bytecode": "0x608060405234801561001057600080fd5b506000600481905550612a0b806100286000396000f3fe6080604052600436106100a75760003560e01c80635667e02f116100645780635667e02f146101b75780637ff5265d146101fc5780638365da5414610225578063aace20b714610269578063bd45b39714610294578063e5b48da9146102bf576100a7565b8063179a878c146100ac57806327506f53146100d557806327f9eb291461010057806341fdc1951461014257806342b20e891461017f57806350b01d9a1461019b575b600080fd5b3480156100b857600080fd5b506100d360048036038101906100ce9190611ac4565b610301565b005b3480156100e157600080fd5b506100ea6106d6565b6040516100f79190611dde565b60405180910390f35b34801561010c57600080fd5b5061012760048036038101906101229190611e00565b6108f2565b60405161013996959493929190611e95565b60405180910390f35b34801561014e57600080fd5b5061016960048036038101906101649190611f04565b610a6e565b6040516101769190611f31565b60405180910390f35b61019960048036038101906101949190612081565b610aba565b005b6101b560048036038101906101b09190612118565b610f63565b005b3480156101c357600080fd5b506101de60048036038101906101d991906121b7565b611260565b6040516101f399989796959493929190612215565b60405180910390f35b34801561020857600080fd5b50610223600480360381019061021e9190611ac4565b6113ad565b005b34801561023157600080fd5b5061024c600480360381019061024791906121b7565b61160a565b6040516102609897969594939291906122a9565b60405180910390f35b34801561027557600080fd5b5061027e611887565b60405161028b9190611f31565b60405180910390f35b3480156102a057600080fd5b506102a961188d565b6040516102b69190611f31565b60405180910390f35b3480156102cb57600080fd5b506102e660048036038101906102e191906121b7565b611893565b6040516102f896959493929190611e95565b60405180910390f35b6000600360008573ffffffffffffffffffffffffffffffffffffffff1673ffffffffffffffffffffffffffffffffffffffff168152602001908152602001600020828154811061035457610353612327565b5b9060005260206000209060080201905060006005838154811061037a57610379612327565b5b906000526020600020906008020190508373ffffffffffffffffffffffffffffffffffffffff168260010160009054906101000a900473ffffffffffffffffffffffffffffffffffffffff1673ffffffffffffffffffffffffffffffffffffffff161461041c576040517f08c379a0000000000000000000000000000000000000000000000000000000008152600401610413906123a2565b60405180910390fd5b600160028111156104305761042f611b61565b5b8260060160009054906101000a900460ff16600281111561045457610453611b61565b5b14610494576040517f08c379a000000000000000000000000000000000000000000000000000000000815260040161048b9061240e565b60405180910390fd5b8160060160019054906101000a900460ff16156104e6576040517f08c379a00000000000000000000000000000000000000000000000000000000081526004016104dd9061247a565b60405180910390fd5b60028260060160006101000a81548160ff0219169083600281111561050e5761050d611b61565b5b021790555060028160060160006101000a81548160ff0219169083600281111561053b5761053a611b61565b5b02179055504281600301819055504282600301819055506000826005015490508260010160009054906101000a900473ffffffffffffffffffffffffffffffffffffffff1673ffffffffffffffffffffffffffffffffffffffff166108fc829081150290604051600060405180830381858888f193505050501580156105c5573d6000803e3d6000fd5b5060018360060160016101000a81548160ff02191690831515021790555060018260060160016101000a81548160ff0219169083151502179055508473ffffffffffffffffffffffffffffffffffffffff168673ffffffffffffffffffffffffffffffffffffffff167f3746ccceb54f44c9b0ee0120e596168d07ec9f6ca303cfdd9810d3b2e2686a2e85600301546040516106619190611f31565b60405180910390a38473ffffffffffffffffffffffffffffffffffffffff168673ffffffffffffffffffffffffffffffffffffffff167f2b6f2473aebafaf8d0889669490135928ec4454d2e29a103fd39693bbca6aef1836040516106c69190611f31565b60405180910390a3505050505050565b60606005805480602002602001604051908101604052809291908181526020016000905b828210156108e95783829060005260206000209060080201604051806101200160405290816000820160009054906101000a900473ffffffffffffffffffffffffffffffffffffffff1673ffffffffffffffffffffffffffffffffffffffff1673ffffffffffffffffffffffffffffffffffffffff1681526020016001820160009054906101000a900473ffffffffffffffffffffffffffffffffffffffff1673ffffffffffffffffffffffffffffffffffffffff1673ffffffffffffffffffffffffffffffffffffffff168152602001600282015481526020016003820154815260200160048201548152602001600582015481526020016006820160009054906101000a900460ff16600281111561081757610816611b61565b5b600281111561082957610828611b61565b5b81526020016006820160019054906101000a900460ff16151515158152602001600782018054610858906124c9565b80601f0160208091040260200160405190810160405280929190818152602001828054610884906124c9565b80156108d15780601f106108a6576101008083540402835291602001916108d1565b820191906000526020600020905b8154815290600101906020018083116108b457829003601f168201915b505050505081525050815260200190600101906106fa565b50505050905090565b6002818154811061090257600080fd5b90600052602060002090600602016000915090508060000160009054906101000a900473ffffffffffffffffffffffffffffffffffffffff169080600101805461094b906124c9565b80601f0160208091040260200160405190810160405280929190818152602001828054610977906124c9565b80156109c45780601f10610999576101008083540402835291602001916109c4565b820191906000526020600020905b8154815290600101906020018083116109a757829003601f168201915b5050505050908060020180546109d9906124c9565b80601f0160208091040260200160405190810160405280929190818152602001828054610a05906124c9565b8015610a525780601f10610a2757610100808354040283529160200191610a52565b820191906000526020600020905b815481529060010190602001808311610a3557829003601f168201915b5050505050908060030154908060040154908060050154905086565b6000600360008373ffffffffffffffffffffffffffffffffffffffff1673ffffffffffffffffffffffffffffffffffffffff168152602001908152602001600020805490509050919050565b813414610afc576040517f08c379a0000000000000000000000000000000000000000000000000000000008152600401610af39061256c565b60405180910390fd5b60006040518061012001604052803373ffffffffffffffffffffffffffffffffffffffff1681526020018773ffffffffffffffffffffffffffffffffffffffff1681526020018681526020016000815260200185815260200184815260200160006002811115610b6f57610b6e611b61565b5b8152602001600015158152602001838152509050600360003373ffffffffffffffffffffffffffffffffffffffff1673ffffffffffffffffffffffffffffffffffffffff16815260200190815260200160002081908060018154018082558091505060019003906000526020600020906008020160009091909190915060008201518160000160006101000a81548173ffffffffffffffffffffffffffffffffffffffff021916908373ffffffffffffffffffffffffffffffffffffffff16021790555060208201518160010160006101000a81548173ffffffffffffffffffffffffffffffffffffffff021916908373ffffffffffffffffffffffffffffffffffffffff16021790555060408201518160020155606082015181600301556080820151816004015560a0820151816005015560c08201518160060160006101000a81548160ff02191690836002811115610ccd57610ccc611b61565b5b021790555060e08201518160060160016101000a81548160ff021916908315150217905550610100820151816007019081610d089190612738565b50505060046000815480929190610d1e90612839565b919050555060056040518061012001604052803373ffffffffffffffffffffffffffffffffffffffff1681526020018873ffffffffffffffffffffffffffffffffffffffff1681526020018781526020016000815260200186815260200185815260200160006002811115610d9657610d95611b61565b5b815260200160001515815260200184815250908060018154018082558091505060019003906000526020600020906008020160009091909190915060008201518160000160006101000a81548173ffffffffffffffffffffffffffffffffffffffff021916908373ffffffffffffffffffffffffffffffffffffffff16021790555060208201518160010160006101000a81548173ffffffffffffffffffffffffffffffffffffffff021916908373ffffffffffffffffffffffffffffffffffffffff16021790555060408201518160020155606082015181600301556080820151816004015560a0820151816005015560c08201518160060160006101000a81548160ff02191690836002811115610eb257610eb1611b61565b5b021790555060e08201518160060160016101000a81548160ff021916908315150217905550610100820151816007019081610eed9190612738565b5050508573ffffffffffffffffffffffffffffffffffffffff163373ffffffffffffffffffffffffffffffffffffffff167fdc2c14456ba256e65dbb915da77d8cf8d1709cb9d842e63fa0858b5ce38be68b87878787604051610f539493929190612881565b60405180910390a3505050505050565b813414610fa5576040517f08c379a0000000000000000000000000000000000000000000000000000000008152600401610f9c9061256c565b60405180910390fd5b60006040518060c001604052803373ffffffffffffffffffffffffffffffffffffffff168152602001868152602001858152602001848152602001838152602001600081525090506000803373ffffffffffffffffffffffffffffffffffffffff1673ffffffffffffffffffffffffffffffffffffffff16815260200190815260200160002081908060018154018082558091505060019003906000526020600020906006020160009091909190915060008201518160000160006101000a81548173ffffffffffffffffffffffffffffffffffffffff021916908373ffffffffffffffffffffffffffffffffffffffff16021790555060208201518160010190816110b19190612738565b5060408201518160020190816110c79190612738565b50606082015181600301556080820151816004015560a082015181600501555050600160008154809291906110fb90612839565b919050555060026040518060c001604052803373ffffffffffffffffffffffffffffffffffffffff1681526020018781526020018681526020018581526020018481526020016000815250908060018154018082558091505060019003906000526020600020906006020160009091909190915060008201518160000160006101000a81548173ffffffffffffffffffffffffffffffffffffffff021916908373ffffffffffffffffffffffffffffffffffffffff16021790555060208201518160010190816111cb9190612738565b5060408201518160020190816111e19190612738565b50606082015181600301556080820151816004015560a0820151816005015550503373ffffffffffffffffffffffffffffffffffffffff167f8713771ef991771aa32ea29f024fb129a99b222cde5dd8baba8a91ae8d8163d8868686866000604051611251959493929190612908565b60405180910390a25050505050565b6003602052816000526040600020818154811061127c57600080fd5b9060005260206000209060080201600091509150508060000160009054906101000a900473ffffffffffffffffffffffffffffffffffffffff16908060010160009054906101000a900473ffffffffffffffffffffffffffffffffffffffff16908060020154908060030154908060040154908060050154908060060160009054906101000a900460ff16908060060160019054906101000a900460ff169080600701805461132a906124c9565b80601f0160208091040260200160405190810160405280929190818152602001828054611356906124c9565b80156113a35780601f10611378576101008083540402835291602001916113a3565b820191906000526020600020905b81548152906001019060200180831161138657829003601f168201915b5050505050905089565b6000600360008573ffffffffffffffffffffffffffffffffffffffff1673ffffffffffffffffffffffffffffffffffffffff1681526020019081526020016000208281548110611400576113ff612327565b5b9060005260206000209060080201905060006005838154811061142657611425612327565b5b906000526020600020906008020190508373ffffffffffffffffffffffffffffffffffffffff168260010160009054906101000a900473ffffffffffffffffffffffffffffffffffffffff1673ffffffffffffffffffffffffffffffffffffffff16146114c8576040517f08c379a00000000000000000000000000000000000000000000000000000000081526004016114bf906123a2565b60405180910390fd5b600060028111156114dc576114db611b61565b5b8260060160009054906101000a900460ff166002811115611500576114ff611b61565b5b14611540576040517f08c379a0000000000000000000000000000000000000000000000000000000008152600401611537906129b5565b60405180910390fd5b60018260060160006101000a81548160ff0219169083600281111561156857611567611b61565b5b021790555060018160060160006101000a81548160ff0219169083600281111561159557611594611b61565b5b02179055508373ffffffffffffffffffffffffffffffffffffffff168573ffffffffffffffffffffffffffffffffffffffff167faafab9f94340179ff9cefd29621e1772a4b8efab8023163838f1b0a8f6ce5df584600201546040516115fb9190611f31565b60405180910390a35050505050565b6000806000806000806000806000600360008c73ffffffffffffffffffffffffffffffffffffffff1673ffffffffffffffffffffffffffffffffffffffff1681526020019081526020016000208a8154811061166957611668612327565b5b9060005260206000209060080201604051806101200160405290816000820160009054906101000a900473ffffffffffffffffffffffffffffffffffffffff1673ffffffffffffffffffffffffffffffffffffffff1673ffffffffffffffffffffffffffffffffffffffff1681526020016001820160009054906101000a900473ffffffffffffffffffffffffffffffffffffffff1673ffffffffffffffffffffffffffffffffffffffff1673ffffffffffffffffffffffffffffffffffffffff168152602001600282015481526020016003820154815260200160048201548152602001600582015481526020016006820160009054906101000a900460ff16600281111561177c5761177b611b61565b5b600281111561178e5761178d611b61565b5b81526020016006820160019054906101000a900460ff161515151581526020016007820180546117bd906124c9565b80601f01602080910402602001604051908101604052809291908181526020018280546117e9906124c9565b80156118365780601f1061180b57610100808354040283529160200191611836565b820191906000526020600020905b81548152906001019060200180831161181957829003601f168201915b5050505050815250509050806000015181602001518260400151836060015184608001518560a001518660c001518760e0015198509850985098509850985098509850509295985092959890939650565b60045481565b60015481565b600060205281600052604060002081815481106118af57600080fd5b9060005260206000209060060201600091509150508060000160009054906101000a900473ffffffffffffffffffffffffffffffffffffffff16908060010180546118f9906124c9565b80601f0160208091040260200160405190810160405280929190818152602001828054611925906124c9565b80156119725780601f1061194757610100808354040283529160200191611972565b820191906000526020600020905b81548152906001019060200180831161195557829003601f168201915b505050505090806002018054611987906124c9565b80601f01602080910402602001604051908101604052809291908181526020018280546119b3906124c9565b8015611a005780601f106119d557610100808354040283529160200191611a00565b820191906000526020600020905b8154815290600101906020018083116119e357829003601f168201915b5050505050908060030154908060040154908060050154905086565b6000604051905090565b600080fd5b600080fd5b600073ffffffffffffffffffffffffffffffffffffffff82169050919050565b6000611a5b82611a30565b9050919050565b611a6b81611a50565b8114611a7657600080fd5b50565b600081359050611a8881611a62565b92915050565b6000819050919050565b611aa181611a8e565b8114611aac57600080fd5b50565b600081359050611abe81611a98565b92915050565b600080600060608486031215611add57611adc611a26565b5b6000611aeb86828701611a79565b9350506020611afc86828701611a79565b9250506040611b0d86828701611aaf565b9150509250925092565b600081519050919050565b600082825260208201905092915050565b6000819050602082019050919050565b611b4c81611a50565b82525050565b611b5b81611a8e565b82525050565b7f4e487b7100000000000000000000000000000000000000000000000000000000600052602160045260246000fd5b60038110611ba157611ba0611b61565b5b50565b6000819050611bb282611b90565b919050565b6000611bc282611ba4565b9050919050565b611bd281611bb7565b82525050565b60008115159050919050565b611bed81611bd8565b82525050565b600081519050919050565b600082825260208201905092915050565b60005b83811015611c2d578082015181840152602081019050611c12565b60008484015250505050565b6000601f19601f8301169050919050565b6000611c5582611bf3565b611c5f8185611bfe565b9350611c6f818560208601611c0f565b611c7881611c39565b840191505092915050565b600061012083016000830151611c9c6000860182611b43565b506020830151611caf6020860182611b43565b506040830151611cc26040860182611b52565b506060830151611cd56060860182611b52565b506080830151611ce86080860182611b52565b5060a0830151611cfb60a0860182611b52565b5060c0830151611d0e60c0860182611bc9565b5060e0830151611d2160e0860182611be4565b50610100830151848203610100860152611d3b8282611c4a565b9150508091505092915050565b6000611d548383611c83565b905092915050565b6000602082019050919050565b6000611d7482611b17565b611d7e8185611b22565b935083602082028501611d9085611b33565b8060005b85811015611dcc5784840389528151611dad8582611d48565b9450611db883611d5c565b925060208a01995050600181019050611d94565b50829750879550505050505092915050565b60006020820190508181036000830152611df88184611d69565b905092915050565b600060208284031215611e1657611e15611a26565b5b6000611e2484828501611aaf565b91505092915050565b611e3681611a50565b82525050565b600082825260208201905092915050565b6000611e5882611bf3565b611e628185611e3c565b9350611e72818560208601611c0f565b611e7b81611c39565b840191505092915050565b611e8f81611a8e565b82525050565b600060c082019050611eaa6000830189611e2d565b8181036020830152611ebc8188611e4d565b90508181036040830152611ed08187611e4d565b9050611edf6060830186611e86565b611eec6080830185611e86565b611ef960a0830184611e86565b979650505050505050565b600060208284031215611f1a57611f19611a26565b5b6000611f2884828501611a79565b91505092915050565b6000602082019050611f466000830184611e86565b92915050565b600080fd5b600080fd5b7f4e487b7100000000000000000000000000000000000000000000000000000000600052604160045260246000fd5b611f8e82611c39565b810181811067ffffffffffffffff82111715611fad57611fac611f56565b5b80604052505050565b6000611fc0611a1c565b9050611fcc8282611f85565b919050565b600067ffffffffffffffff821115611fec57611feb611f56565b5b611ff582611c39565b9050602081019050919050565b82818337600083830152505050565b600061202461201f84611fd1565b611fb6565b9050828152602081018484840111156120405761203f611f51565b5b61204b848285612002565b509392505050565b600082601f83011261206857612067611f4c565b5b8135612078848260208601612011565b91505092915050565b600080600080600060a0868803121561209d5761209c611a26565b5b60006120ab88828901611a79565b95505060206120bc88828901611aaf565b94505060406120cd88828901611aaf565b93505060606120de88828901611aaf565b925050608086013567ffffffffffffffff8111156120ff576120fe611a2b565b5b61210b88828901612053565b9150509295509295909350565b6000806000806080858703121561213257612131611a26565b5b600085013567ffffffffffffffff8111156121505761214f611a2b565b5b61215c87828801612053565b945050602085013567ffffffffffffffff81111561217d5761217c611a2b565b5b61218987828801612053565b935050604061219a87828801611aaf565b92505060606121ab87828801611aaf565b91505092959194509250565b600080604083850312156121ce576121cd611a26565b5b60006121dc85828601611a79565b92505060206121ed85828601611aaf565b9150509250929050565b61220081611bb7565b82525050565b61220f81611bd8565b82525050565b60006101208201905061222b600083018c611e2d565b612238602083018b611e2d565b612245604083018a611e86565b6122526060830189611e86565b61225f6080830188611e86565b61226c60a0830187611e86565b61227960c08301866121f7565b61228660e0830185612206565b8181036101008301526122998184611e4d565b90509a9950505050505050505050565b6000610100820190506122bf600083018b611e2d565b6122cc602083018a611e2d565b6122d96040830189611e86565b6122e66060830188611e86565b6122f36080830187611e86565b61230060a0830186611e86565b61230d60c08301856121f7565b61231a60e0830184612206565b9998505050505050505050565b7f4e487b7100000000000000000000000000000000000000000000000000000000600052603260045260246000fd5b7f496e76616c69642072656365697665722e000000000000000000000000000000600082015250565b600061238c601183611e3c565b915061239782612356565b602082019050919050565b600060208201905081810360008301526123bb8161237f565b9050919050565b7f536869706d656e74206e6f7420696e207472616e7369742e0000000000000000600082015250565b60006123f8601883611e3c565b9150612403826123c2565b602082019050919050565b60006020820190508181036000830152612427816123eb565b9050919050565b7f536869706d656e7420616c726561647920706169642e00000000000000000000600082015250565b6000612464601683611e3c565b915061246f8261242e565b602082019050919050565b6000602082019050818103600083015261249381612457565b9050919050565b7f4e487b7100000000000000000000000000000000000000000000000000000000600052602260045260246000fd5b600060028204905060018216806124e157607f821691505b6020821081036124f4576124f361249a565b5b50919050565b7f5061796d656e7420616d6f756e74206d757374206d617463682074686520707260008201527f6963652e00000000000000000000000000000000000000000000000000000000602082015250565b6000612556602483611e3c565b9150612561826124fa565b604082019050919050565b6000602082019050818103600083015261258581612549565b9050919050565b60008190508160005260206000209050919050565b60006020601f8301049050919050565b600082821b905092915050565b6000600883026125ee7fffffffffffffffffffffffffffffffffffffffffffffffffffffffffffffffff826125b1565b6125f886836125b1565b95508019841693508086168417925050509392505050565b6000819050919050565b600061263561263061262b84611a8e565b612610565b611a8e565b9050919050565b6000819050919050565b61264f8361261a565b61266361265b8261263c565b8484546125be565b825550505050565b600090565b61267861266b565b612683818484612646565b505050565b5b818110156126a75761269c600082612670565b600181019050612689565b5050565b601f8211156126ec576126bd8161258c565b6126c6846125a1565b810160208510156126d5578190505b6126e96126e1856125a1565b830182612688565b50505b505050565b600082821c905092915050565b600061270f600019846008026126f1565b1980831691505092915050565b600061272883836126fe565b9150826002028217905092915050565b61274182611bf3565b67ffffffffffffffff81111561275a57612759611f56565b5b61276482546124c9565b61276f8282856126ab565b600060209050601f8311600181146127a25760008415612790578287015190505b61279a858261271c565b865550612802565b601f1984166127b08661258c565b60005b828110156127d8578489015182556001820191506020850194506020810190506127b3565b868310156127f557848901516127f1601f8916826126fe565b8355505b6001600288020188555050505b505050505050565b7f4e487b7100000000000000000000000000000000000000000000000000000000600052601160045260246000fd5b600061284482611a8e565b91507fffffffffffffffffffffffffffffffffffffffffffffffffffffffffffffffff82036128765761287561280a565b5b600182019050919050565b60006080820190506128966000830187611e86565b6128a36020830186611e86565b6128b06040830185611e86565b81810360608301526128c28184611e4d565b905095945050505050565b6000819050919050565b60006128f26128ed6128e8846128cd565b612610565b611a8e565b9050919050565b612902816128d7565b82525050565b600060a08201905081810360008301526129228188611e4d565b905081810360208301526129368187611e4d565b90506129456040830186611e86565b6129526060830185611e86565b61295f60808301846128f9565b9695505050505050565b7f536869706d656e7420616c726561647920696e207472616e7369742e00000000600082015250565b600061299f601c83611e3c565b91506129aa82612969565b602082019050919050565b600060208201905081810360008301526129ce81612992565b905091905056fea26469706673582212209cb3f0d7fe50e03eb9f2e2f80285ddc774f8fa1b2043838f4ca716343622ad1664736f6c63430008120033",
  "linkReferences": {},
  "deployedLinkReferences": {}
}